:020000040000fa
:080000000002040000000000f2
:020000040000fa
:04000800700500007f
:020000040000fa
:04000c00700500007b
:020000040000fa
:040010007005000077
:020000040000fa
:040014007005000073
:020000040000fa
:04001800700500006f
:020000040000fa
:04001c00700500006b
:020000040000fa
:040020007005000067
:020000040000fa
:040024007005000063
:020000040000fa
:04002800700500005f
:020000040000fa
:04002c00700500005b
:020000040000fa
:040030007005000057
:020000040000fa
:040034007005000053
:020000040000fa
:04003800700500004f
:020000040000fa
:04003c00700500004b
:020000040000fa
:040040007005000047
:020000040000fa
:040044003e05000075
:020000040000fa
:04004800700500003f
:020000040000fa
:04004c00700500003b
:020000040000fa
:040050007005000037
:020000040000fa
:040054007005000033
:020000040000fa
:04005800700500002f
:020000040000fa
:04005c00c8020000d6
:020000040000fa
:040060007005000027
:020000040000fa
:040064007005000023
:020000040000fa
:04006800700500001f
:020000040000fa
:04006c00700500001b
:020000040000fa
:040070007005000017
:020000040000fa
:04007400e6020000a0
:020000040000fa
:04007800700500000f
:020000040000fa
:04007c00700500000b
:020000040000fa
:040080007005000007
:020000040000fa
:040084007005000003
:020000040000fa
:0400880070050000ff
:020000040000fa
:04008c0070050000fb
:020000040000fa
:0400900070050000f7
:020000040000fa
:0400940070050000f3
:020000040000fa
:04009800b6040000aa
:020000040000fa
:04009c0070050000eb
:020000040000fa
:0400a0004403000015
:020000040000fa
:0400a400f203000063
:020000040000fa
:0400a80070050000df
:020000040000fa
:0400ac0070050000db
:020000040000fa
:0400b00070050000d7
:020000040000fa
:0400b40070050000d3
:020000040000fa
:0400b80070050000cf
:020000040000fa
:0400bc0070050000cb
:020000040000fa
:0400c00070050000c7
:020000040000fa
:0400c40070050000c3
:020000040000fa
:0400c80070050000bf
:020000040000fa
:0400cc0070050000bb
:020000040000fa
:0400d00070050000b7
:020000040000fa
:0400d40070050000b3
:020000040000fa
:0400d80070050000af
:020000040000fa
:0400dc0070050000ab
:020000040000fa
:0400e00070050000a7
:020000040000fa
:0400e400a60400006e
:020000040000fa
:0400e800940400007c
:020000040000fa
:0400ec00700500009b
:020000040000fa
:0400f0007005000097
:020000040000fa
:0400f4007005000093
:020000040000fa
:0400f800700500008f
:020000040000fa
:0400fc00700500008b
:020000040000fa
:040100007005000086
:020000040000fa
:040104007005000082
:020000040000fa
:04010800700500007e
:020000040000fa
:04010c00700500007a
:020000040000fa
:040110007005000076
:020000040000fa
:040114007005000072
:020000040000fa
:04011800700500006e
:020000040000fa
:04011c00700500006a
:020000040000fa
:040120007005000066
:020000040000fa
:040124007005000062
:020000040000fa
:04012800700500005e
:020000040000fa
:04012c00700500005a
:020000040000fa
:040130007005000056
:020000040000fa
:040134007005000052
:020000040000fa
:04013800700500004e
:020000040000fa
:04013c00700500004a
:020000040000fa
:040140007005000046
:020000040000fa
:040144007005000042
:020000040000fa
:04020800700500007d
:020000040000fa
:04020c007005000079
:020000040000fa
:040210007005000075
:020000040000fa
:040214007005000071
:020000040000fa
:04021800700500006d
:020000040000fa
:04021c007005000069
:020000040000fa
:040220007005000065
:020000040000fa
:040224007005000061
:020000040000fa
:04022800700500005d
:020000040000fa
:04022c007005000059
:020000040000fa
:040230007005000055
:020000040000fa
:040234007005000051
:020000040000fa
:04023800700500004d
:020000040000fa
:04023c007005000049
:020000040000fa
:040240007005000045
:020000040000fa
:040244007005000041
:020000040000fa
:04024800700500003d
:020000040000fa
:04024c007005000039
:020000040000fa
:040250007005000035
:020000040000fa
:040254007005000031
:020000040000fa
:04025800700500002d
:020000040000fa
:04025c007005000029
:020000040000fa
:040260007005000025
:020000040000fa
:040264007005000021
:020000040000fa
:04026800700500001d
:020000040000fa
:04026c007005000019
:020000040000fa
:040270007005000015
:020000040000fa
:040274007005000011
:020000040000fa
:04027800700500000d
:020000040000fa
:04027c007005000009
:020000040000fa
:040280007005000005
:020000040000fa
:040284007005000001
:020000040000fa
:0402880070050000fd
:020000040000fa
:04028c0070050000f9
:020000040000fa
:0402900070050000f5
:020000040000fa
:0402940070050000f1
:020000040000fa
:0402980070050000ed
:020000040000fa
:04029c0070050000e9
:020000040000fa
:0402a00070050000e5
:020000040000fa
:0402a40070050000e1
:020000040000fa
:0402a80070050000dd
:020000040000fa
:0402ac0070050000d9
:020000040000fa
:0402b00070050000d5
:020000040000fa
:0402b40070050000d1
:020000040000fa
:0402b80070050000cd
:020000040000fa
:0402bc0070050000c9
:020000040000fa
:0402c00070050000c5
:020000040000fa
:0402c40070050000c1
:020000040000fa
:0402c80070050000bd
:020000040000fa
:0402cc0070050000b9
:020000040000fa
:0402d00070050000b5
:020000040000fa
:0402d40070050000b1
:020000040000fa
:0402d80070050000ad
:020000040000fa
:0402dc0070050000a9
:020000040000fa
:0402e00070050000a5
:020000040000fa
:0402e40070050000a1
:020000040000fa
:0402e800700500009d
:020000040000fa
:0402ec007005000099
:020000040000fa
:0402f0007005000095
:020000040000fa
:0402f4007005000091
:020000040000fa
:0402f800700500008d
:020000040000fa
:0402fc007005000089
:020000040000fa
:040300007005000084
:020000040000fa
:040304007005000080
:020000040000fa
:04030800700500007c
:020000040000fa
:04030c007005000078
:020000040000fa
:040310007005000074
:020000040000fa
:040314007005000070
:020000040000fa
:04031800700500006c
:020000040000fa
:04031c007005000068
:020000040000fa
:040320007005000064
:020000040000fa
:040324007005000060
:020000040000fa
:04032800700500005c
:020000040000fa
:04032c007005000058
:020000040000fa
:040330007005000054
:020000040000fa
:040334007005000050
:020000040000fa
:04033800700500004c
:020000040000fa
:04033c007005000048
:020000040000fa
:040340007005000044
:020000040000fa
:040344007005000040
:020000040000fa
:10040000af8b20000e7f24000e018800000000004a
:10041000000020000000e000020032000001200087
:100420002002880014000700af0107000000e00070
:1004300003003a00c03d2100010020000200370007
:100440000000200001002000810f70000100320038
:1004500014000700000020000000e000020032004d
:1004600000000200000000007a12020000000000fc
:100470000040da000000fe004440a900a006200071
:100480000000e0000300320000002000a00188000e
:100490004440a800000006008a1f78008b1f7800e7
:1004a0000000060091018800800478000000eb0045
:1004b0001a003700e284440032a0b4009905ba0063
:1004c000e284440032a0b4009906ba00e2844400f9
:1004d00032a0b4000006eb00476fde00fd07b2005b
:1004e000636ce10003003a00ebff07000000eb0043
:1004f0000a003700606ce10004003a00005deb0088
:100500008b05e900fdff3e00040037006168e10053
:10051000010032000086eb000b00070019c7ba008b
:100520001905ba000e04e00003003a000a00e000da
:10053000e0ff3a0000000600fe07b2009e018800be
:100540008a047800f5ff3700395dba008b05e900b1
:100550000c003200295dba008b05e900080032006a
:100560000c00e00003003a00e284440032a0b40032
:10057000f5ff370019ddba008b05e900faff3a00f4
:100580008904e800e184440032a0b40000000600c1
:100590003600f800809fbe00829fbe00849fbe0090
:1005a000869fbe000000fa005006070085a0a90043
:1005b0000080fa004f03be004f02be004f01be0094
:1005c0004f00be003600f900004006003600f8007b
:1005d000809fbe00829fbe00849fbe00869fbe009b
:1005e0000000fa00a11680000004200000806000d6
:1005f0000000e0000a003a00700980000080ea0074
:100600004f00de00004078000080fb004f00dd005e
:100610007109800001f0a1000100700070098800dc
:10062000a116800000082000008060000000e000ab
:1006300002003a00c80407002fe1a900111680004b
:1006400000082000008060000000e00006003a0082
:100650002041800000f0a7000000ea000000e9004f
:100660004f00de00204188008660a9000080fa006b
:100670004f03be004f02be004f01be004f00be0040
:100680003600f900004006003600f800809fbe00ea
:10069000829fbe00849fbe00869fbe000200fa00bb
:1006a000b0118000004f78001e00fb0041062000c2
:1006b000810f50002b00320041062000810f5000b6
:1006c0000a003c00d1042000810f500017003200c6
:1006d00031062000810f500012003200410420003a
:1006e000810f50001f00320033003700d106200078
:1006f000810f50000d00320001072000810f5000d3
:100700000400320091062000810f500003003200e7
:10071000290037002fe1a900270037008e040700c9
:10072000250037002fe1a80023003700004180009a
:10073000ea004000f0408000808f500017003e002b
:10074000204180000000e00016003a0000418000d7
:100750006a0040000041880010002000104188001d
:100760001500370000418000ea005000e0408000a2
:10077000808f50000d003900204180000000e00013
:100780000c003a00004180006a00500000418800df
:100790001000200010418800070037000000000012
:1007a00005003700000000000300370000000000d3
:1007b00001003700000000009e4078009089200072
:1007c0000148780087c0a9000080fa004f03be00ee
:1007d0004f02be004f01be004f00be003600f900c0
:1007e00000400600809fbe000000fa0030418000fb
:1007f000e20f50002a003200e20f500005003c00da
:100800000000e00008003200e10f50001500320047
:1008100041003700e30f500026003200e40f500083
:10082000290032003c00370040418000218e280022
:10083000614078000000fb00a0118800404180006a
:100840000000e8004041880040418000e30f500074
:100850002c003a0010002000304188002828ef00ca
:100860002d00370040418000a187200061407800c2
:100870000080fb00a0118800404180000000e800db
:100880004041880040418000f00f50001f003a00b6
:1008900020002000304188002828ef001e0037008b
:1008a000a0002000a0118800300020003041880006
:1008b00019003700d0002000a0118800400020005f
:1008c0003041880014003700404180007000400033
:1008d000a1872000614078000080fb00a011880003
:1008e000404180000000e800404188004041800015
:1008f000f00f500007003a002628ef002828ef00ec
:100900000500370000000000030037000000000071
:10091000010037000000000087e0a9000080fa0015
:100920004f00be0000400600801f78000000fa0063
:10093000004080006a004000004088008a00a90052
:100940000080fa004f00780000400600801f780009
:100950000000fa00100020005040880089e0a90043
:100960000080fa004f007800004006003600f800d2
:10097000809fbe00829fbe00849fbe00869fbe00f7
:100980000000fa0070408000e10f500010003200bb
:10099000e10f500003003c000000e00006003200c0
:1009a0002e003700e20f500016003200e30f500017
:1009b0001a003200290037001028ef0000c8b300e9
:1009c000da0507001000200070408800230037007f
:1009d00080408000a187200061407800ee0507007c
:1009e000804080000000e800804088008040800057
:1009f000f00f500016003a002000200070408800e0
:100a0000160037001028ef0000ccb300c705070020
:100a100030002000704088001000370080408000c7
:100a200070004000a187200061407800da050700cf
:100a3000804080000000e800804088008040800006
:100a4000f00f500004003a000e28ef0003003700ba
:100a50000000000001003700000000008780a900ae
:100a60000080fa004f03be004f02be004f01be00df
:100a70004f00be003600f90000400600809fbe0017
:100a80000000fa00604080000000e0000300320037
:100a9000e10f5000070032000d00370000418000d8
:100aa00060088800d602a80010002000604088007e
:100ab0000700370060088000410d230000805000cf
:100ac00060088800d602a9000c28ef000000000092
:100ad00084e0a9000080fa004f00be00004006003c
:100ae0000040da000000fe000000050003f0a20054
:100af000889fbe008a9fbe008c1f7800f30007000d
:100b0000fa0033006450e1004f0032006420e1003d
:100b10005200320003826c0007003b000905d00040
:100b20000306d000820f54000c065d00020039005d
:100b300002003200890178000306780085825500a2
:100b400004003d000003fd008103fd008502ea0072
:100b50008b854200840f720002003b006000100091
:100b6000e08018006011b8000005eb007a28e10071
:100b70000a00390006007800c75ddd00f707b20003
:100b8000878075002d003700828171000a0178008e
:100b9000610560008180d1000080d3008502e900fa
:100ba000f9ff3b00060440008784480002003b0038
:100bb00060041400e0841c000988a30007003200d0
:100bc0008a81710082817100610164008904d10011
:100bd0000884d3008b05e800170037000978a300cc
:100be00013003a000b00e000130034008b05e9000d
:100bf0000804440089844c000a4474000978a30066
:100c00000d003a000b00e000070034008b05e900fe
:100c10000804440089844c0001003a000b002000c5
:100c20000978a300f7ff32000001eb000200370053
:100c3000828171000a017800690007000cf0a700aa
:100c400001f0a000b20037006420e10002003a0089
:100c5000838f6c00b20033000801be000200be00aa
:100c6000ab003700889fbe008a9fbe008c1f7800b3
:100c7000960007009d00330003866c006450e1007d
:100c80002e0032006420e100330032006150e100a8
:100c90002f0032006120e1003100320085855500cf
:100ca000eb07b00009002000080420000500370011
:100cb0000804440089844c000a0031000603430004
:100cc00087834b000001530081815b00f8ff3300f4
:100cd0000203be000800a0000804440089844c0000
:100ce000f6ff3900c639dd008301730001003200d0
:100cf000130020008904d1000884d3000998a300c0
:100d0000050032000800a7000300a0008904d100fc
:100d10000884d3008b05e8008904d1000884d3003f
:100d20000001eb000281d2002d00070001f0a100bc
:100d30000cf0a70001f0a000750037006420e1006e
:100d4000770032000801be000200be00f7ff370046
:100d50006120e100720032006000b800f3ff37004c
:100d60000000200001f82700f0ff37000001be005e
:100d7000410007000470a70003f0a10003f8a300de
:100d800013003a006509b100100032000900350077
:100d90006928e1000200350001002800000005007c
:100da00000004000818048008502e900fcff3a0015
:100db00000000600f88f4200050035008100d100d8
:100dc0000080d3008502e800fcff3a000000060026
:100dd0008000eb00000005006011b80097003700ac
:100de00081002000618055000b003d000b002000b9
:100df00061fe2f000100e1001d00340082817100be
:100e0000610164008904d1000884d3000000e80077
:100e1000faff3a00710020006100640003007000d6
:100e2000020060000900320061044400e0844c00cc
:100e30000988a500050032008b05e8006808e1007c
:100e400002003a008904d1000884d300f20f200088
:100e50000258e10005003d00c75ddd00f907b20062
:100e60008980750008007800000006000bf8270054
:100e70008b00780000000500c70ade00f107b20011
:100e8000f50fb20008003200e1cf4200020032004c
:100e90000170a00024000500810f700001003200e5
:100ea0000408050044000500810f700002003a00ac
:100eb000140005008502e9000000400081c04800e0
:100ec000fcff3b000170a000240005000004be00f0
:100ed000e9ff07000003be000405be000200be00db
:100ee000e5ff0700844f7500000006000200be0009
:100ef0006450e100050036006420e1000200360085
:100f00000968a30001003a000800be000160a000cb
:100f10004f0678004f05be004f04be0000000600db
:100f2000f0ff2f00f1ff2700f9ff3700889fbe0078
:100f30008a9fbe008c1f7800e4ff0700ebff3300a0
:100f400003866c006450e100240032006420e1005c
:100f5000270032006150e100220032006120e100f0
:100f6000210032008b854200eb07b1000134b8004c
:100f7000003ab8000804420089844a00013ab800e7
:100f80000030b8008880400009014a0004003300a6
:100f90000000400081804800020149008b05e90003
:100fa000c909dd0083017000010032001300200038
:100fb000c814de004814dd004709de001200b2004c
:100fc000c808de000884700085ff070001f0a1005a
:100fd0000cf0a70001f0a000cdff37006120e10078
:100fe000cfff32000801be000200be00f7ff37004d
:100ff0006150e100fcff3a00c9ff37006022b800f1
:10100000060220000000d0008180d2000482d200bd
:101010008582d2000000a0000202520083825a00a2
:10102000030031000202420083824a000000a10056
:101030000603e900f3ff3a0000000600889fbe00a7
:101040008a9fbe0000827000040271000482710059
:10105000260032000004be000200be006011b8008d
:101060006b092000950220000182cf000a003900a0
:101070000541b1000082cf00070039000541b100f1
:101080000982cf00040039000541b1000882cf0079
:10109000010039000541b100054252001200320042
:1010a0000a003b0082817100610164008100d1006f
:1010b0000080d3008984d3000884d3008b05e80026
:1010c0000442e800f7ff3a00070037000804440034
:1010d00089844c0000004800818048008b05e900ad
:1010e0000442e900f9ff3a003dff07004f05be004a
:0810f0004f04be0000000600e1
:020000040000fa
:1010f8002d2000004453000045200000323000003d
:10110800323100002d320000322000002d2d000069
:10111800002d00002d2d000020500000756c0000ef
:10112800736100002053000033200000202d0000d0
:101138002d0000002d2d00002d2d0000204c00005a
:10114800434400005f760000312000002d2d000090
:101158002d2d000000200000205300003420000046
:10116800636f00006d690000656e00007a61000021
:10117800202d00002d000000502000003d20000020
:1011880020200000202c000020540000203d0000fa
:10119800202000002020000000430000726f0000a3
:1011a8006e6f00003a2000002d2d00003a2d00003f
:1011b8002d2c00002d200000200000001b5b0000eb
:0411c80048000000db
:020000040000fa
:1011cc000000fa00b0182000201088000020210038
:1011dc003010880007e2a8000080fa00000006002a
:1011ec000200fa000602a8000000eb00000f7800d5
:1011fc00010037001e0fe800301080006100600015
:10120c000000e00004003200703e20009e007800d8
:10121c00808f5000f7ff3600703e20009e00780053
:10122c00808f5000020036001000200001003700b3
:10123c000000eb000080fa00000006000200fa003b
:10124c000622a8000000eb00000f78000100370018
:10125c001e0fe80030108000620060000000e0000b
:10126c0004003200703e20009e007800808f5000f9
:10127c00f7ff3600703e20009e007800808f5000f3
:10128c000200360010002000010037000000eb00c7
:10129c000080fa00000006000200fa000642a800d6
:1012ac000000eb00000f7800010037001e0fe80073
:1012bc0030108000640060000000e0000400320088
:1012cc00703e20009e007800808f5000f7ff3600a3
:1012dc00703e20009e007800808f50000200360087
:1012ec0010002000010037000000eb000080fa0025
:1012fc00000006000200fa000000eb00000f78006e
:10130c00010037001e0fe80041108000000024008f
:10131c00008060000000e00004003200703e2000fd
:10132c009e007800808f5000f6ff3600703e200043
:10133c009e007800808f50000200360010002000c4
:10134c00010037000000eb000080fa0000000600ee
:10135c000400fa00204798002e4090000080fb000b
:10136c00101088000000eb00000f7800010037001f
:10137c001e0fe80040108000610060000000e000db
:10138c0004003200703e20009e007800808f5000d8
:10139c00f7ff3600703e20009e007800808f5000d2
:1013ac000200360010002000010037000000eb00a6
:1013bc000080fa00000006000400fa0010079800f4
:1013cc000000eb00000f7800010037001e0fe80052
:1013dc004110800000002400008060000000e0004c
:1013ec0004003200703e20009e007800808f500078
:1013fc00f6ff3600703e20009e007800808f500073
:10140c00020036001000200007003700401080005a
:10141c004f00de00004078008080fb001e00900032
:10142c00010878000000eb000080fa0000000600c4
:10143c000200fa0006a2a8000682a8000000eb0039
:10144c00000f7800010037001e0fe80030108000fc
:10145c00700060000000e00004003200703e2000cc
:10146c009e007800808f5000f7ff3600703e200001
:10147c009e007800808f5000020036001000200083
:10148c00010037000000eb000080fa0000000600ad
:10149c000200fa0006a2a9000682a8000000eb00d8
:1014ac00000f7800010037001e0fe800301080009c
:1014bc00700060000000e00004003200703e20006c
:1014cc009e007800808f5000f7ff3600703e2000a1
:1014dc009e007800808f5000020036001000200023
:1014ec00010037000000eb000080fa00000006004d
:1014fc000400fa00100798000662a8000000eb0038
:10150c00000f7800010037001e0fe800401080002b
:10151c006200600000f0a7000000ea000000e90093
:10152c004f00de008040780010c0b300723e2000f7
:10153c009e017800828f5100010034000040eb00c6
:10154c0000c060000004e000efff3a00703e200095
:10155c009e007800808f50000200340010002000a4
:10156c000500370000108000804078001e009000bd
:10157c00014878000000eb000080fa000000060033
:10158c000400fa00000f7800214798000f00370084
:10159c001e007800d6ff07000000e00002003200b9
:1015ac0010002000140037001e0fe8002e409000a1
:1015bc000004e00005003200b5ff07000000e00069
:1015cc0002003200200020000b0037002e4090005b
:1015dc000080fb000000ea004f00de0000407800b5
:1015ec00ae4090008140e900214798000004e000e3
:1015fc00e7ff3a000000eb000080fa000000060054
:10160c000800fa00204798003147980022079800fc
:10161c006347980037ff07000000e000020032002b
:10162c001000200041003700edfe07000000e00034
:10163c0002003200200020003c0037002e409000b9
:10164c0043ff07000000e0000200320030002000e1
:10165c00360037000e00780057ff07000000e0004e
:10166c000200320040002000300037003e40900065
:10167c0037ff07000000e0000200320030002000bd
:10168c002a0037000e0078004bff07000000e00036
:10169c00020032004000200024003700e7fe070063
:1016ac000000e00002003200600020001f00370044
:1016bc002e4090000004a00025ff07000000e00071
:1016cc000200320030002000180037000e007800b5
:1016dc0039ff07000000e00002003200400020004b
:1016ec0012003700ee4090002e009000a4ff07007f
:1016fc000000e00002003200700020000b003700f8
:10170c004bff07000000e0000200320080002000c8
:10171c0006003700e0fe07000000e0000200320087
:10172c0050002000010037000000eb000080fa00a0
:10173c00000006000600fa00204798003147980088
:10174c0042479800ebfe07000000e0000200320068
:10175c00100020002f003700a1fe07000000e00061
:10176c0002003200200020002a0037002e4090009a
:10177c00f7fe07000000e0000200320030002000fd
:10178c00240037000e0078000bff07000000e0007b
:10179c0002003200400020001e0037003e40900046
:1017ac00ebfe07000000e0000200320030002000d9
:1017bc00180037000e007800fffe07000000e00064
:1017cc000200320040002000120037004e40900012
:1017dc00dffe07000000e0000200320030002000b5
:1017ec000c0037000e007800f3fe07000000e0004c
:1017fc00020032004000200006003700a6fe070061
:10180c000000e00002003200500020000100370010
:10181c000000eb000080fa00000006000000fa0057
:10182c002621ef0000352c0050098800710980003a
:10183c00f0fc2f00008060000040a00070098800c0
:10184c002e21a9002ec1a9002fe1a8009a00a80002
:10185c000080fa00000006000000fa002221ef00d0
:10186c0060ae2a004009880061098000f0fc2f005e
:10187c00008060000050a000600988002c21a900a5
:10188c002cc1a9002de1a80099e0a80089e0a900cd
:10189c000080fa00000006000000fa001821ef009a
:1018ac00400d2300e008880001098000f0fc2f00a7
:1018bc00008060000040a000000988002021a900e1
:1018cc0020c1a90021e1a8009780a8000080fa009f
:1018dc00000006000000fa000a21ef0000c42900f5
:1018ec007008880091088000f0fc2f0000806000d8
:1018fc00900888001221a90012c1a90013e1a800c8
:10190c009500a9000080fa00000006000000fa0013
:10191c000621ef00400d230060088800810880003c
:10192c00f0fc2f00008060000050a00080088800b0
:10193c001021a90010c1a90011e1a80094e0a80091
:10194c0084e0a9000080fa00000006000000fa0004
:10195c000028ef000228ef000428ef000628ef0013
:10196c0010002000404088000080fa0000000600b3
:10197c000000fa0040408000e10f50000d003a00da
:10198c0011408000a08720007d0040006602070007
:10199c0031408000a08720007700400062020700e1
:1019ac0021408000a08720007a0040005e020700e2
:1019bc000828ef000080fa00000006000000fa0082
:1019cc000140800040062000808f500016003a0035
:1019dc00201680006400600000f0a7000000ea0000
:1019ec000000e9004f00de00004078000080fb00a2
:1019fc00610060004200dd00211680000120a10082
:101a0c0001007000201688000028ef0010408000b4
:101a1c000000e8001040880011408000a0872000e2
:101a2c007d0040004002070010408000ea0f50008b
:101a3c0015003a00201680006100600000f0a7003d
:101a4c000000ea000000e9004f00de0000407800d2
:101a5c000080fb0061006000211680000100a100e5
:101a6c0001007000201688000228ef002040800042
:101a7c000000e8002040880021408000a087200062
:101a8c007a0040002802070021408000c00320009b
:101a9c00808f500008003a000428ef00304080008e
:101aac000000e8003040880031408000a087200012
:101abc00770040001c0207000080fa0000000600be
:101acc000e00fa00600798003421ef006e009000c1
:101adc00cf80de0002c429000289b900020178001f
:101aec006002b900840178000301410003c429009d
:101afc000300b8000101410082007800008fbe0095
:101b0c00008fbe000000200011002000200798006c
:101b1c00310798002e019000be0190001e00be00ff
:101b2c0033fd070040079800510798004e009000c5
:101b3c00de009000e00f5000e08f580007003a00e4
:101b4c001e007800c0098800e1098000f0fc2f001d
:101b5c0000806000e00988003a0037004e019000d8
:101b6c00de0190007000200001002000800f510069
:101b7c00818f59000d003e001e00be004d09dd0096
:101b8c004300de0000007100c308de000000780096
:101b9c00c0098800e1098000f0fc2f000080600083
:101bac000040a000e0098800260037004e0190009c
:101bbc00de019000f003200001002000800f510096
:101bcc00818f59000d003e001e00be004a09dd0049
:101bdc004600de0000007100c608de000000780040
:101bec00c0098800e1098000f0fc2f000080600033
:101bfc000050a000e0098800120037004e01900050
:101c0c00de019000f00f200001002000800f510039
:101c1c00818f59000b003e001e00be004809dd00fc
:101c2c004800de0000007100c808de0000007800eb
:101c3c00c0098800e1098000000320000100700049
:101c4c00e00988003c21a9003cc1a9008a80a900b8
:101c5c003de1a8000000000050048000700060000e
:101c6c000000e000fcff32008a80a9003de1a900e1
:101c7c000080fa00000006000e00fa0060079800d1
:101c8c003421ef006e009000cf80de008202200035
:101c9c000289b900020178006002b9008401780061
:101cac0003014100830220000300b8000101410040
:101cbc0082007800008fbe00008fbe000000200064
:101ccc001100200020079800310798002e01900089
:101cdc00be0190001e00be00c5fc07004007980026
:101cec00510798004e009000de009000e00f50006d
:101cfc00e08f580007003a001e007800c0098800e9
:101d0c00e1098000f0fc2f0000806000e0098800f1
:101d1c003a0037004e019000de0190007000200068
:101d2c0001002000800f5100818f59000d003e00f2
:101d3c001e00be004d09dd004300de0000007100f6
:101d4c00c308de0000007800c0098800e1098000ab
:101d5c00f0fc2f00008060000040a000e00988002b
:101d6c00260037004e019000de019000f0032000a9
:101d7c0001002000800f5100818f59000d003e00a2
:101d8c001e00be004a09dd004600de0000007100a6
:101d9c00c608de0000007800c0098800e109800058
:101dac00f0fc2f00008060000050a000e0098800cb
:101dbc00120037004e019000de019000f00f200061
:101dcc0001002000800f5100818f59000b003e0054
:101ddc001e00be004809dd004800de000000710056
:101dec00c808de0000007800c0098800e109800006
:101dfc000003200001007000e00988003c21a900cc
:101e0c003cc1a9008a80a9003de1a80000000000a7
:101e1c0050048000700060000000e000fcff320005
:101e2c008a80a9003de1a9000080fa0000000600ac
:101e3c000000fa002023ef0001198000f0f12f00c0
:101e4c00008060000060a000001988002043a800fa
:101e5c002223ef002423ef002119800000f0210041
:101e6c00010070002019880030c0b30024e3b700d3
:101e7c003223ef002623ef002823ef0041198000c6
:101e8c0000fe2f00008060005000b3004019880055
:101e9c002e23ef003023ef000080eb005019880058
:101eac000080eb00601988002ca3a9002c83a900ea
:101ebc002c03a9002c23a9002c43a90085a0a90060
:101ecc0095a0a80021e3a8000080fa0000000600fd
:101edc000000fa002023a8000080fa000000060091
:101eec000000fa0040198000004078007f4060003c
:101efc000080fb00e20f500024003200e20f500083
:101f0c0005003c000000e00008003200e10f50002a
:101f1c001200320043003700e40f5000270032005b
:101f2c00e50f5000310032003e003700d0408000f9
:101f3c000118800000014000a08420000000410036
:101f4c00010878004119800000fe2f00008060001d
:101f5c000000a0004019880032003700d0408000fb
:101f6c000118800000014000a08520000000410005
:101f7c00010878004119800000fe2f0000806000ed
:101f8c000010a0004019880026003700d0408000c7
:101f9c000118800000014000a086200000004100d4
:101fac00010878004119800000fe2f0000806000bd
:101fbc000020a000401988001a003700d040800093
:101fcc000118800000014000a083200000004100a7
:101fdc00010878004119800000fe2f00008060008d
:101fec005000b300401988000e003700d04080002c
:101ffc000118800000014000a08220000000410078
:10200c0001087800d04080000000e800d040880033
:10201c004119800000fe2f000080600040198800ec
:10202c0000000000d0408000e80f500004003a008f
:10203c001a28ef0010002000c040880021e3a900fe
:10204c0090408000a140800061004000e08048008a
:10205c0090408800a14088000080fa000000060033
:10206c000600fa000000eb00000f78000000eb0007
:10207c00100798000000eb002007980011003700b3
:10208c002e00900080004000a082200000804000c4
:10209c00100078001e0f40002e00900080004000c1
:1020ac00a086200000804000100078009e00900068
:1020bc0000804000100798002e0090000000e800ff
:1020cc00200798002e009000e70f5000ecff360020
:1020dc001e0078004300de00000f78001e00900008
:1020ec004300de0010079800a0872000630040002a
:1020fc009e007800b0000700204180000000e00046
:10210c00040032001e007800890107001000200036
:10211c001041880021e3a8000080fa0000000600ae
:10212c000200fa00004f7800d6a2a900cbe2a90069
:10213c00e116800000f02f0000806000e01688009f
:10214c009e00fb00e016800001007000e016880085
:10215c00d682a80000000000000000000000000073
:10216c000000000000000000000000000000000063
:10217c00000000000000000000000000d682a90052
:10218c00d6a2a8000080fa00000006000200fa00a7
:10219c00004f7800d6a2a900cbe2a800e11680007f
:1021ac0000f02f0000806000e01688009e00fb000d
:1021bc00e016800001007000e0168800d682a800ae
:1021cc000000000000000000000000000000000003
:1021dc0000000000000000000000000000000000f3
:1021ec000000000000000000d682a900cbe2a9008c
:1021fc00d6a2a8000080fa00000006000000fa0039
:10220c00f00020002efe0700e116800000f02f00e9
:10221c0000806000e0168800d6a2a900cbe2a900dd
:10222c00d682a900c116800000f02f00008060004b
:10223c00c0168800d2a2a900c7e2a900d282a900c8
:10224c0080c3b300b6ff0700500020001cfe07003f
:10225c0080c3b300b2ff07004006200086fe0700d3
:10226c0080c3b300aeff07008002200082fe07008f
:10227c0080c3b300aaff0700800220007efe070087
:10228c00c0c0b300a6ff0700800220007afe070042
:10229c0060c0b300a2ff07008002200076fe07009a
:1022ac000080fa00000006000400fa00000f78001d
:1022bc0021479800090037001e0078001040780074
:1022cc001e0fe800b1ff0700800220006afe070025
:1022dc002e4090000040e900204798002e409000ce
:1022ec000004e000f4ff3a000080fa000000060051
:1022fc000000fa0000c8b30089ff0700800220002c
:10230c005dfe07000080fa00000006000000fa00e5
:10231c0000ccb30082ff07008002200056fe0700ad
:10232c000080fa00000006000600fa001007980072
:10233c0021079800ae00900030062000808f5000de
:10234c0001003600ffff3700ae009000d0cc2c000f
:10235c000008b8004308de00004f78001e80fb0028
:10236c00a18a2000614f78001e0090001e48780062
:10237c001e0090000000e800100798002e0190004d
:10238c00d0cc2c000010b8004308de006a00b90065
:10239c000000780000005100004f78001e80fb0008
:1023ac00a18a2000614f78001e0090001e48780022
:1023bc000080fa00000006000600fa0010079800e2
:1023cc0021079800ae009000f0702200808f500022
:1023dc0001003600ffff37002e009000c300de0026
:1023ec00500c22000008b8004408de00004f7800b2
:1023fc001e80fb00a18a2000614f78001e00900017
:10240c001e4878001e0090000000e800100798009d
:10241c002e009000c200de00b04721000008b8007a
:10242c000101d100d0cc2c000010b8004308de0014
:10243c006a00b9000000780000005100004f7800dd
:10244c001e80fb00a18a2000614f78001e009000c6
:10245c001e4878001e0090000000e800100798004d
:10246c00ae009000d0cc2c000008b8004309de0070
:10247c00d0cc2c000010b8004308de006a00b90074
:10248c000000780000005100004f78001e80fb0017
:10249c00a18a2000614f78001e0090001e48780031
:1024ac001e0090000000e800100798002e0190001c
:1024bc00d0cc2c000010b8004308de006a00b90034
:1024cc000000780000005100004f78001e80fb00d7
:1024dc00a18a2000614f78001e0090001e487800f1
:1024ec000080fa00000006000400fa0060000700fb
:1024fc00070107001201070040ff07008000eb00f6
:10250c00c0872800ed00070011002000d0882800ab
:10251c00ea00070076ff0700a087200001c1b30086
:10252c0061ff070079ff0700a087200070004000c2
:10253c0001c1b3005cff070000000000a116800081
:10254c0000042000008060000000e000fbff3a0067
:10255c008000eb00e0892800d80007001100200063
:10256c00f08a2800d500070061ff0700a087200033
:10257c0001c1b3004cff070064ff0700a0872000d7
:10258c007000400001c1b30047ff070000000000cd
:10259c00a116800000002200008060000000e00016
:1025ac00fbff3a008000eb00008c2800c300070002
:1025bc0011002000108d2800c00007004cff070000
:1025cc00a087200001c1b30037ff07004fff0700b1
:1025dc00a08720007000400001c1b30032ff07004b
:1025ec00dafc07008dfc0700abfc0700ee000700cf
:1025fc00db0007003422ef000dfe0700b5fc0700de
:10260c0044000700c1fc0700edfa070000ceb30040
:10261c00004f78001e80fb00880007000100370087
:10262c0000000000e5fc0700d1fc0700c040800062
:10263c00e10f500002003a0089fe07001828ef0055
:10264c00504080000000e000f5ff32002de1a900b1
:10265c002221ef001e80fb008e00e8007f000700a7
:10266c001e80fb00750007002de1a800edff370070
:10267c000000fa0060022000303a8800213a800005
:10268c00f0f32f0000806000203a8800213a80008f
:10269c0000fe2f0000806000203a880040a7a900af
:1026ac003200200080072000a10920003374200094
:1026bc008049780081497800824978001200200016
:1026cc0060042000710520002374200080497800ec
:1026dc00814978008249780000000000113a80009e
:1026ec00000027008080600000002300808f5000d5
:1026fc00faff3a0000000000113a800000022000ae
:10270c00008060000000e000fbff32000080fa0057
:10271c00000006000000fa0001418000a0872000a4
:10272c006c00400024ff07000080fa000000060047
:10273c000200fa00889fbe00000f78001e0078008f
:10274c008000eb00a1f907000004be00f1408000fe
:10275c00e0408000008050008000eb009bf90700f7
:10276c0002002c00f34724003bf907000001be00d7
:10277c000800be00eaf907000004be00e04080003b
:10278c008000eb0091f907000001be000800be00bc
:10279c00d4f8070072f907000000780000418800a7
:0c27ac004f04be000080fa000000060090
:020000040000fa
:1027b8002a08000050000000000000001208000075
:1027c8000a000000000000001c08000006000000cd
:1027d8000200000038012000052c03002208000038
:1027e80004000000000000002608000004000000ab
:1027f800000000007a08000020000000000000002f
:102808009a08000010000000000000000008000006
:102818001200000000000000aa08000010000000dc
:1028280002000000303132003334350036373800ca
:102838003900000000000000000000000000000057
:020000040000fa
:102848000200fa00004f780012c5b3008040eb0088
:102858001e407800b8fb07000080fa000000060060
:102868000400fa00004f78001107980023c0b30055
:102878001e01900021c0b3001e40780061fb0700d4
:102888000080fa00000006000400fa0020479800c3
:1028980031479800ae409000014f78000080fa0060
:1028a800000006000200fa00000f780081032000f3
:1028b8001e00780033fb07000080fa0000000600c5
:1028c8000600fa0010079800210798000000eb00a6
:1028d800000f78000a0037001e0090001e0040001c
:1028e800904078002e009000a28720004400dd0070
:1028f8001e00400000004100014878001e0fe8005b
:102908001e007800ef0f5000f3ff36000080fa0039
:10291800000006000000fa0000f02f0000168800f2
:1029280000000000000000002116800000f02f00c9
:102938000080600020168800d202a9000080fa00fa
:10294800000006000000fa000080eb005019880023
:10295800d3a2a800d2c2a800c0e2a8000080fa0052
:10296800000006000000fa0020822000c011880044
:102978003022ef003062a8003222ef0087c0a900a1
:1029880087e0a90097c0a80097e0a8009c40a9008c
:102998003222a90031e2a8003342a800100d20001d
:1029a800b6fc07000080fa00000006000000fa00ec
:1029b80061e0a8006200a80062e0a8009660a80094
:0c29c8008660a9000080fa0000000600f4
:020000040000fa
:0200000401f009
:04000c00fbff0000f6
:020000040000fa
:0200000401f009
:040010007dff000070
:020000040000fa
:0200000401f009
:040014007fff00006a
:00000001FF
