:020000040000fa
:080000000002040000000000f2
:020000040000fa
:04000800520300009f
:020000040000fa
:04000c00520300009b
:020000040000fa
:040010005203000097
:020000040000fa
:040014005203000093
:020000040000fa
:04001800520300008f
:020000040000fa
:04001c00520300008b
:020000040000fa
:040020005203000087
:020000040000fa
:040024005203000083
:020000040000fa
:04002800520300007f
:020000040000fa
:04002c00520300007b
:020000040000fa
:040030005203000077
:020000040000fa
:040034005203000073
:020000040000fa
:04003800520300006f
:020000040000fa
:04003c00520300006b
:020000040000fa
:040040005203000067
:020000040000fa
:040044005203000063
:020000040000fa
:04004800520300005f
:020000040000fa
:04004c00520300005b
:020000040000fa
:040050005203000057
:020000040000fa
:040054005203000053
:020000040000fa
:04005800520300004f
:020000040000fa
:04005c00520300004b
:020000040000fa
:040060005203000047
:020000040000fa
:040064005203000043
:020000040000fa
:04006800520300003f
:020000040000fa
:04006c00520300003b
:020000040000fa
:040070005203000037
:020000040000fa
:04007400c8020000be
:020000040000fa
:04007800520300002f
:020000040000fa
:04007c00520300002b
:020000040000fa
:040080005203000027
:020000040000fa
:040084005203000023
:020000040000fa
:04008800520300001f
:020000040000fa
:04008c00520300001b
:020000040000fa
:040090005203000017
:020000040000fa
:040094005203000013
:020000040000fa
:04009800340300002d
:020000040000fa
:04009c00520300000b
:020000040000fa
:0400a0005203000007
:020000040000fa
:0400a4005203000003
:020000040000fa
:0400a80052030000ff
:020000040000fa
:0400ac0052030000fb
:020000040000fa
:0400b00052030000f7
:020000040000fa
:0400b40052030000f3
:020000040000fa
:0400b80052030000ef
:020000040000fa
:0400bc0052030000eb
:020000040000fa
:0400c00052030000e7
:020000040000fa
:0400c40052030000e3
:020000040000fa
:0400c80052030000df
:020000040000fa
:0400cc0052030000db
:020000040000fa
:0400d00052030000d7
:020000040000fa
:0400d40052030000d3
:020000040000fa
:0400d80052030000cf
:020000040000fa
:0400dc0052030000cb
:020000040000fa
:0400e00052030000c7
:020000040000fa
:0400e40052030000c3
:020000040000fa
:0400e80022030000ef
:020000040000fa
:0400ec0052030000bb
:020000040000fa
:0400f00052030000b7
:020000040000fa
:0400f40052030000b3
:020000040000fa
:0400f80052030000af
:020000040000fa
:0400fc0052030000ab
:020000040000fa
:0401000052030000a6
:020000040000fa
:0401040052030000a2
:020000040000fa
:04010800520300009e
:020000040000fa
:04010c00520300009a
:020000040000fa
:040110005203000096
:020000040000fa
:040114005203000092
:020000040000fa
:04011800520300008e
:020000040000fa
:04011c00520300008a
:020000040000fa
:040120005203000086
:020000040000fa
:040124005203000082
:020000040000fa
:04012800520300007e
:020000040000fa
:04012c00520300007a
:020000040000fa
:040130005203000076
:020000040000fa
:040134005203000072
:020000040000fa
:04013800520300006e
:020000040000fa
:04013c00520300006a
:020000040000fa
:040140005203000066
:020000040000fa
:040144005203000062
:020000040000fa
:04020800520300009d
:020000040000fa
:04020c005203000099
:020000040000fa
:040210005203000095
:020000040000fa
:040214005203000091
:020000040000fa
:04021800520300008d
:020000040000fa
:04021c005203000089
:020000040000fa
:040220005203000085
:020000040000fa
:040224005203000081
:020000040000fa
:04022800520300007d
:020000040000fa
:04022c005203000079
:020000040000fa
:040230005203000075
:020000040000fa
:040234005203000071
:020000040000fa
:04023800520300006d
:020000040000fa
:04023c005203000069
:020000040000fa
:040240005203000065
:020000040000fa
:040244005203000061
:020000040000fa
:04024800520300005d
:020000040000fa
:04024c005203000059
:020000040000fa
:040250005203000055
:020000040000fa
:040254005203000051
:020000040000fa
:04025800520300004d
:020000040000fa
:04025c005203000049
:020000040000fa
:040260005203000045
:020000040000fa
:040264005203000041
:020000040000fa
:04026800520300003d
:020000040000fa
:04026c005203000039
:020000040000fa
:040270005203000035
:020000040000fa
:040274005203000031
:020000040000fa
:04027800520300002d
:020000040000fa
:04027c005203000029
:020000040000fa
:040280005203000025
:020000040000fa
:040284005203000021
:020000040000fa
:04028800520300001d
:020000040000fa
:04028c005203000019
:020000040000fa
:040290005203000015
:020000040000fa
:040294005203000011
:020000040000fa
:04029800520300000d
:020000040000fa
:04029c005203000009
:020000040000fa
:0402a0005203000005
:020000040000fa
:0402a4005203000001
:020000040000fa
:0402a80052030000fd
:020000040000fa
:0402ac0052030000f9
:020000040000fa
:0402b00052030000f5
:020000040000fa
:0402b40052030000f1
:020000040000fa
:0402b80052030000ed
:020000040000fa
:0402bc0052030000e9
:020000040000fa
:0402c00052030000e5
:020000040000fa
:0402c40052030000e1
:020000040000fa
:0402c80052030000dd
:020000040000fa
:0402cc0052030000d9
:020000040000fa
:0402d00052030000d5
:020000040000fa
:0402d40052030000d1
:020000040000fa
:0402d80052030000cd
:020000040000fa
:0402dc0052030000c9
:020000040000fa
:0402e00052030000c5
:020000040000fa
:0402e40052030000c1
:020000040000fa
:0402e80052030000bd
:020000040000fa
:0402ec0052030000b9
:020000040000fa
:0402f00052030000b5
:020000040000fa
:0402f40052030000b1
:020000040000fa
:0402f80052030000ad
:020000040000fa
:0402fc0052030000a9
:020000040000fa
:0403000052030000a4
:020000040000fa
:0403040052030000a0
:020000040000fa
:04030800520300009c
:020000040000fa
:04030c005203000098
:020000040000fa
:040310005203000094
:020000040000fa
:040314005203000090
:020000040000fa
:04031800520300008c
:020000040000fa
:04031c005203000088
:020000040000fa
:040320005203000084
:020000040000fa
:040324005203000080
:020000040000fa
:04032800520300007c
:020000040000fa
:04032c005203000078
:020000040000fa
:040330005203000074
:020000040000fa
:040334005203000070
:020000040000fa
:04033800520300006c
:020000040000fa
:04033c005203000068
:020000040000fa
:040340005203000064
:020000040000fa
:040344005203000060
:020000040000fa
:10040000af8320000e7f24000e0188000000000052
:10041000000020000000e000020032000001200087
:100420002002880014000700a00007000000e00080
:1004300003003a00609b200001002000020037000a
:100440000000200001002000810f70000100320038
:1004500014000700000020000000e000020032004d
:100460000000020000000000b408020000000000cc
:100470000040da000000fe004440a90060062000b1
:100480000000e0000300320000002000a00188000e
:100490004440a800000006008a1f78008b1f7800e7
:1004a0000000060091018800800478000000eb0045
:1004b0001a003700e284440032a0b4009905ba0063
:1004c000e284440032a0b4009906ba00e2844400f9
:1004d00032a0b4000006eb00476fde00fd07b2005b
:1004e000636ce10003003a00ebff07000000eb0043
:1004f0000a003700606ce10004003a00005deb0088
:100500008b05e900fdff3e00040037006168e10053
:10051000010032000086eb000b00070019c7ba008b
:100520001905ba000e04e00003003a000a00e000da
:10053000e0ff3a0000000600fe07b2009e018800be
:100540008a047800f5ff3700395dba008b05e900b1
:100550000c003200295dba008b05e900080032006a
:100560000c00e00003003a00e284440032a0b40032
:10057000f5ff370019ddba008b05e900faff3a00f4
:100580008904e800e184440032a0b40000000600c1
:100590003600f800809fbe00829fbe00849fbe0090
:1005a000869fbe000000fa00a11680000004200013
:1005b000008060000000e0000a003a00700980003e
:1005c0000080ea004f00de00004078000080fb0061
:1005d0004f00dd007109800001f0a10001007000f2
:1005e00070098800a11680000008200000806000cb
:1005f0000000e0000b003a008e0007007009800048
:100600000080ea004f00de00004078000080fb0020
:100610004f00dd007109800001f0a10001007000b1
:10062000700988008660a9000080fa004f03be00b0
:100630004f02be004f01be004f00be003600f90061
:1006400000400600801f78000000fa000040800093
:100650006a004000004088008a00a9000080fa007b
:100660004f007800004006003600f800809fbe0072
:10067000829fbe00849fbe00869fbe000000fa00dd
:100680001e0207008780a9000080fa004f03be0009
:100690004f02be004f01be004f00be003600f90001
:1006a000004006000040da000000fe0000000500e7
:1006b0006022b800060220000000d0008180d20035
:1006c0000482d2008582d2000000a0000202520003
:1006d00083825a00030031000202420083824a00f2
:1006e0000000a1000603e900f3ff3a000000060045
:020000040000fa
:1006f0002d2000004453000045200000323000004f
:10070000323100002d320000322000002d2d00007b
:10071000002d00002d2d000020500000756c000001
:10072000736100002053000033200000202d0000e2
:100730002d0000002d2d00002d2d0000204c00006c
:10074000434400005f760000312000002d2d0000a2
:100750002d2d000000200000205300003420000058
:10076000636f00006d690000656e00007a61000033
:10077000202d00002d0000005333000020730000e6
:10078000742f0000737400006f7000002c200000b4
:10079000533600003d30000000430000726f00003f
:1007a0006e6f00003a2000002d2d00003a2d000051
:0c07b0002d2c00002d2000002000000077
:020000040000fa
:1007bc000000fa002621ef0000352c0050098800bb
:1007cc0071098000f0fc2f00008060000040a00048
:1007dc00700988002e21a9002ec1a9002fe1a800c4
:1007ec009a00a8000080fa00000006000000fa0041
:1007fc001821ef0090d02300e00888000109800048
:10080c00f0fc2f00008060000050a0000009880060
:10081c002021a90020c1a90021e1a8009780a800ef
:10082c000080fa00000006000000fa000028ef002b
:10083c000228ef000428ef000628ef00114080008a
:10084c00a08020007d004000f601070031408000b0
:10085c00a080200077004000f201070021408000ba
:10086c00a08020007a004000ee0107000080fa0012
:10087c00000006000000fa00014080004006200045
:10088c00808f500016003a00201680006400600033
:10089c0000f0a7000000ea000000e9004f00de00b5
:1008ac00004078000080fb00610060004200dd0029
:1008bc00211680000120a100010070002016880084
:1008cc000028ef00104080000000e8001040880075
:1008dc0011408000a08020007d004000d101070065
:1008ec0010408000ea0f500015003a0020168000de
:1008fc006100600000f0a7000000ea000000e900c1
:10090c004f00de00004078000080fb0061006000ba
:10091c00211680000100a100010070002016880043
:10092c000228ef00204080000000e80020408800f2
:10093c0021408000a08020007a004000b90107000f
:10094c0021408000c0032000808f500008003a0036
:10095c000428ef00304080000000e80030408800a0
:10096c0031408000a080200077004000ad010700de
:10097c000080fa00000006000e00fa0060079800e4
:10098c003421ef006e009000cf80de0002c42900fd
:10099c000289b900020178006002b9008401780074
:1009ac000301410003c429000300b8000101410008
:1009bc0082007800008fbe00008fbe000000200077
:1009cc001100200020079800310798002e0190009c
:1009dc00be0190001e00be0032ff070040079800c9
:1009ec00510798004e009000de009000e00f500080
:1009fc00e08f580007003a001e007800c0098800fc
:100a0c00e1098000f0fc2f0000806000e009880004
:100a1c003a0037004e019000de019000700020007b
:100a2c0001002000800f5100818f59000d003e0005
:100a3c001e00be004d09dd004300de000000710009
:100a4c00c308de0000007800c0098800e1098000be
:100a5c00f0fc2f00008060000040a000e00988003e
:100a6c00260037004e019000de019000f0032000bc
:100a7c0001002000800f5100818f59000d003e00b5
:100a8c001e00be004a09dd004600de0000007100b9
:100a9c00c608de0000007800c0098800e10980006b
:100aac00f0fc2f00008060000050a000e0098800de
:100abc00120037004e019000de019000f00f200074
:100acc0001002000800f5100818f59000b003e0067
:100adc001e00be004809dd004800de000000710069
:100aec00c808de0000007800c0098800e109800019
:100afc000003200001007000e00988003c21a900df
:100b0c003cc1a9008a80a9003de1a80000000000ba
:100b1c0050048000700060000000e000fcff320018
:100b2c008a80a9003de1a9000080fa0000000600bf
:100b3c000e00fa00600798003421ef006e00900060
:100b4c00cf80de00820220000289b9000201780009
:100b5c006002b90084017800030141008302200087
:100b6c000300b8000101410082007800008fbe0034
:100b7c00008fbe000000200011002000200798000c
:100b8c00310798002e019000be0190001e00be009f
:100b9c00c4fe070040079800510798004e009000d3
:100bac00de009000e00f5000e08f580007003a0084
:100bbc001e007800c0098800e1098000f0fc2f00bd
:100bcc0000806000e00988003a0037004e01900078
:100bdc00de0190007000200001002000800f510009
:100bec00818f59000d003e001e00be004d09dd0036
:100bfc004300de0000007100c308de000000780036
:100c0c00c0098800e1098000f0fc2f000080600022
:100c1c000040a000e0098800260037004e0190003b
:100c2c00de019000f003200001002000800f510035
:100c3c00818f59000d003e001e00be004a09dd00e8
:100c4c004600de0000007100c608de0000007800df
:100c5c00c0098800e1098000f0fc2f0000806000d2
:100c6c000050a000e0098800120037004e019000ef
:100c7c00de019000f00f200001002000800f5100d9
:100c8c00818f59000b003e001e00be004809dd009c
:100c9c004800de0000007100c808de00000078008b
:100cac00c0098800e10980000003200001007000e9
:100cbc00e00988003c21a9003cc1a9008a80a90058
:100ccc003de1a800000000005004800070006000ae
:100cdc000000e000fcff32008a80a9003de1a90081
:100cec000080fa00000006000200fa00004f7800b5
:100cfc00d6a2a900cbe2a900e116800000f02f00db
:100d0c0000806000e01688009e00fb00e01680006a
:100d1c0001007000e0168800d682a80000000000d8
:100d2c0000000000000000000000000000000000b7
:100d3c0000000000000000000000000000000000a7
:100d4c0000000000d682a900d6a2a8000080fa00fc
:100d5c00000006000200fa00004f7800d6a2a9009d
:100d6c00cbe2a800e116800000f02f0000806000ac
:100d7c00e01688009e00fb00e01680000100700069
:100d8c00e0168800d682a8000000000000000000d9
:100d9c000000000000000000000000000000000047
:100dac000000000000000000000000000000000037
:100dbc00d682a900cbe2a900d6a2a8000080fa0036
:100dcc00000006000000fa00f0002000eafe070018
:100ddc00e116800000f02f0000806000e016880013
:100dec00d6a2a900cbe2a900d682a900c116800028
:100dfc0000f02f0000806000c0168800d2a2a9006d
:100e0c00c7e2a900d282a90080c3b300b6ff0700d5
:100e1c0050002000d8fe070080c3b300b2ff0700cb
:100e2c004006200042ff070080c3b300aeff07005e
:100e3c00800220003eff070080c3b300aaff07001a
:100e4c00800220003aff0700c0c0b300a6ff0700d5
:100e5c008002200036ff070060c0b300a2ff07002d
:100e6c008002200032ff07000080fa00000006001c
:100e7c000400fa00000f78002147980009003700a1
:100e8c001e007800104078001e0fe800b1ff07002c
:100e9c008002200026ff07002e4090000040e90051
:100eac00204798002e4090000004e000f4ff3a0028
:100ebc000080fa00000006000000fa0000c8b30031
:100ecc0089ff07008002200019ff07000080fa004c
:100edc00000006000000fa0000ccb30082ff0700ff
:100eec008002200012ff07000080fa0000000600bc
:100efc000000fa00404080000000e00013003a00bf
:100f0c0000ccb30078ff07008002200008ff070028
:100f1c00a0812000104078008eff0700b0812000d7
:100f2c00104078008bff0700c08120001040780033
:100f3c0088ff0700d08120001040780085ff070053
:100f4c0010002000404088003400370040408000f2
:100f5c00e10f50000f003a00e081200010407800b3
:100f6c007cff0700f08120001040780079ff07001b
:100f7c00008220001040780076ff070010822000cd
:100f8c001040780073ff07002000200040408800cc
:100f9c002200370040408000e20f50000f003a0062
:100fac0020822000104078006aff07003082200069
:100fbc001040780067ff0700408220001040780046
:100fcc0064ff0700508220001040780061ff07008a
:100fdc003000200040408800100037004040800066
:100fec00e30f50000d003a006082200010407800a2
:100ffc0058ff0700708220001040780055ff070052
:10100c00808220001040780052ff07009082200060
:10101c00104078004fff07000828ef000080fa000e
:10102c00000006000600fa0010079800210798003f
:10103c00ae00900030062000808f5000010036007a
:10104c00ffff3700ae009000d0cc2c000008b80099
:10105c004308de00004f78001e80fb00a1822000b8
:10106c00614f78001e0090001e4878001e00900012
:10107c000000e800100798002e019000d0cc2c0046
:10108c000010b8004308de006a00b90000007800c8
:10109c0000005100004f78001e80fb00a182200050
:1010ac00614f78001e0090001e4878000080fa0006
:1010bc00000006000800fa0020079800310798008d
:1010cc000000eb00000f7800010037001e0fe80055
:1010dc001e007800ae0090000080400010407800a8
:1010ec000004e000f9ff3a000000eb001007980044
:1010fc000c0037001e0090001e004000ae00900057
:10110c00008040009e0090003e0190008100410054
:10111c0091407800014878001e0090000000e80023
:10112c00100798001e009000be0090000080400048
:10113c00104078000004e000eeff3a001e00900022
:10114c001e004000ae009000008040008040eb008c
:10115c00014878000080fa00000006000000fa0048
:10116c0041000700910007009b00070015ff0700d6
:10117c008000eb008037280064000700110020007d
:10118c0090382800610007004bff0700a08020006a
:10119c0001c1b30036ff07004eff0700a0802000fe
:1011ac007000400001c1b30031ff070000000000d7
:1011bc00a116800000042000008060000000e00008
:1011cc00fbff3a008000eb00a03928004f0007001d
:1011dc0011002000b03a28004c00070036ff070031
:1011ec00a080200001c1b30021ff070039ff0700d8
:1011fc00a08020007000400001c1b3001cff07005c
:10120c0000000000a1168000000022000080600099
:10121c000000e000fbff3a008000eb00c03b280020
:10122c003a00070011002000d03c280037000700ce
:10123c0021ff0700a080200001c1b3000cff0700b4
:10124c0024ff0700a08020007000400001c1b30003
:10125c0007ff070074fd070055fd07006500070038
:10126c0084fd0700feff37000000fa00600220003a
:10127c00303a8800213a8000f0f32f0000806000a3
:10128c00203a8800213a800000fe2f000080600088
:10129c00203a880040a7a9003200200080072000d7
:1012ac00a10920003374200080497800814978001e
:1012bc008249780012002000600420007105200093
:1012cc002374200080497800814978008249780095
:1012dc0000000000113a80000000270080806000b0
:1012ec0000002300808f5000faff3a00000000003d
:1012fc00113a800000022000008060000000e00035
:10130c00fbff32000080fa00000006000600fa0025
:10131c0010079800210798000000eb00000f7800e0
:10132c000a0037001e0090001e004000904078001c
:10133c002e009000a28020004400dd001e00400022
:10134c0000004100014878001e0fe8001e007800e4
:10135c00ef0f5000f3ff36000080fa00000006008b
:020000040000fa
:10136c000808000002000000000000000a0800004d
:10137c0020000000000000002a08000010000000ff
:10138c00020000003031320033343500363738007b
:10139c003900000000000000000000000008000000
:0c13ac000800000000000000000000002d
:020000040000fa
:1013b8000000fa0000f02f0000168800000000006e
:1013c800000000002116800000f02f00008060005f
:1013d800201688000080fa00000006000000fa00cd
:1013e8000080eb0050198800d3a2a800d2c2a80040
:1013f8000080fa00000006000000fa0061e0a80082
:101408006200a8009660a8008660a9000080fa0023
:0414180000000600ca
:020000040000fa
:0200000401f009
:04000c00fbff0000f6
:020000040000fa
:0200000401f009
:040010007dff000070
:020000040000fa
:0200000401f009
:040014007fff00006a
:00000001FF
