:020000040000fa
:080000000002040000000000f2
:020000040000fa
:04000800440b0000a5
:020000040000fa
:04000c00440b0000a1
:020000040000fa
:04001000440b00009d
:020000040000fa
:04001400440b000099
:020000040000fa
:04001800440b000095
:020000040000fa
:04001c00440b000091
:020000040000fa
:04002000440b00008d
:020000040000fa
:04002400440b000089
:020000040000fa
:04002800440b000085
:020000040000fa
:04002c00440b000081
:020000040000fa
:04003000440b00007d
:020000040000fa
:04003400440b000079
:020000040000fa
:04003800440b000075
:020000040000fa
:04003c00440b000071
:020000040000fa
:04004000440b00006d
:020000040000fa
:040044008807000029
:020000040000fa
:04004800440b000065
:020000040000fa
:04004c00440b000061
:020000040000fa
:04005000440b00005d
:020000040000fa
:04005400440b000059
:020000040000fa
:04005800440b000055
:020000040000fa
:04005c00260b00006f
:020000040000fa
:04006000440b00004d
:020000040000fa
:04006400440b000049
:020000040000fa
:04006800440b000045
:020000040000fa
:04006c00440b000041
:020000040000fa
:04007000440b00003d
:020000040000fa
:04007400c8020000be
:020000040000fa
:04007800440b000035
:020000040000fa
:04007c00440b000031
:020000040000fa
:04008000440b00002d
:020000040000fa
:04008400440b000029
:020000040000fa
:04008800440b000025
:020000040000fa
:04008c00440b000021
:020000040000fa
:04009000440b00001d
:020000040000fa
:04009400440b000019
:020000040000fa
:04009800000700005d
:020000040000fa
:04009c00440b000011
:020000040000fa
:0400a00066080000ee
:020000040000fa
:0400a400b40a00009a
:020000040000fa
:0400a800440b000005
:020000040000fa
:0400ac00440b000001
:020000040000fa
:0400b000440b0000fd
:020000040000fa
:0400b400440b0000f9
:020000040000fa
:0400b800440b0000f5
:020000040000fa
:0400bc00440b0000f1
:020000040000fa
:0400c000440b0000ed
:020000040000fa
:0400c400440b0000e9
:020000040000fa
:0400c800440b0000e5
:020000040000fa
:0400cc00440b0000e1
:020000040000fa
:0400d000440b0000dd
:020000040000fa
:0400d400440b0000d9
:020000040000fa
:0400d800440b0000d5
:020000040000fa
:0400dc00440b0000d1
:020000040000fa
:0400e000440b0000cd
:020000040000fa
:0400e400440b0000c9
:020000040000fa
:0400e800ee06000020
:020000040000fa
:0400ec00440b0000c1
:020000040000fa
:0400f000440b0000bd
:020000040000fa
:0400f4006a0300009b
:020000040000fa
:0400f800440b0000b5
:020000040000fa
:0400fc00440b0000b1
:020000040000fa
:04010000440b0000ac
:020000040000fa
:04010400440b0000a8
:020000040000fa
:04010800440b0000a4
:020000040000fa
:04010c00440b0000a0
:020000040000fa
:04011000440b00009c
:020000040000fa
:04011400440b000098
:020000040000fa
:04011800440b000094
:020000040000fa
:04011c00440b000090
:020000040000fa
:04012000440b00008c
:020000040000fa
:04012400440b000088
:020000040000fa
:04012800440b000084
:020000040000fa
:04012c00440b000080
:020000040000fa
:04013000440b00007c
:020000040000fa
:04013400440b000078
:020000040000fa
:04013800440b000074
:020000040000fa
:04013c00440b000070
:020000040000fa
:04014000440b00006c
:020000040000fa
:04014400440b000068
:020000040000fa
:04020800440b0000a3
:020000040000fa
:04020c00440b00009f
:020000040000fa
:04021000440b00009b
:020000040000fa
:04021400440b000097
:020000040000fa
:04021800440b000093
:020000040000fa
:04021c00440b00008f
:020000040000fa
:04022000440b00008b
:020000040000fa
:04022400440b000087
:020000040000fa
:04022800440b000083
:020000040000fa
:04022c00440b00007f
:020000040000fa
:04023000440b00007b
:020000040000fa
:04023400440b000077
:020000040000fa
:04023800440b000073
:020000040000fa
:04023c00440b00006f
:020000040000fa
:04024000440b00006b
:020000040000fa
:04024400440b000067
:020000040000fa
:04024800440b000063
:020000040000fa
:04024c00440b00005f
:020000040000fa
:04025000440b00005b
:020000040000fa
:04025400440b000057
:020000040000fa
:04025800440b000053
:020000040000fa
:04025c00440b00004f
:020000040000fa
:04026000440b00004b
:020000040000fa
:04026400440b000047
:020000040000fa
:04026800440b000043
:020000040000fa
:04026c00440b00003f
:020000040000fa
:04027000440b00003b
:020000040000fa
:04027400440b000037
:020000040000fa
:04027800440b000033
:020000040000fa
:04027c00440b00002f
:020000040000fa
:04028000440b00002b
:020000040000fa
:04028400440b000027
:020000040000fa
:04028800440b000023
:020000040000fa
:04028c00440b00001f
:020000040000fa
:04029000440b00001b
:020000040000fa
:04029400440b000017
:020000040000fa
:04029800440b000013
:020000040000fa
:04029c00440b00000f
:020000040000fa
:0402a000440b00000b
:020000040000fa
:0402a400440b000007
:020000040000fa
:0402a800440b000003
:020000040000fa
:0402ac00440b0000ff
:020000040000fa
:0402b000440b0000fb
:020000040000fa
:0402b400440b0000f7
:020000040000fa
:0402b800440b0000f3
:020000040000fa
:0402bc00440b0000ef
:020000040000fa
:0402c000440b0000eb
:020000040000fa
:0402c400440b0000e7
:020000040000fa
:0402c800440b0000e3
:020000040000fa
:0402cc00440b0000df
:020000040000fa
:0402d000440b0000db
:020000040000fa
:0402d400440b0000d7
:020000040000fa
:0402d800440b0000d3
:020000040000fa
:0402dc00440b0000cf
:020000040000fa
:0402e000440b0000cb
:020000040000fa
:0402e400440b0000c7
:020000040000fa
:0402e800440b0000c3
:020000040000fa
:0402ec00440b0000bf
:020000040000fa
:0402f000440b0000bb
:020000040000fa
:0402f400440b0000b7
:020000040000fa
:0402f800440b0000b3
:020000040000fa
:0402fc00440b0000af
:020000040000fa
:04030000440b0000aa
:020000040000fa
:04030400440b0000a6
:020000040000fa
:04030800440b0000a2
:020000040000fa
:04030c00440b00009e
:020000040000fa
:04031000440b00009a
:020000040000fa
:04031400440b000096
:020000040000fa
:04031800440b000092
:020000040000fa
:04031c00440b00008e
:020000040000fa
:04032000440b00008a
:020000040000fa
:04032400440b000086
:020000040000fa
:04032800440b000082
:020000040000fa
:04032c00440b00007e
:020000040000fa
:04033000440b00007a
:020000040000fa
:04033400440b000076
:020000040000fa
:04033800440b000072
:020000040000fa
:04033c00440b00006e
:020000040000fa
:04034000440b00006a
:020000040000fa
:04034400440b000066
:020000040000fa
:10040000efa420000e7f24000e01880000000000f1
:10041000000020000000e000020032000001200087
:100420002002880014000700990407000000e00083
:1004300003003a0040412100010020000200370083
:100440000000200001002000810f70000100320038
:1004500014000700000020000000e000020032004d
:100460000000020000000000581802000000000018
:100470000040da000000fe004440a90040002000d7
:100480000000e0000300320000002000a00188000e
:100490004440a800000006008a1f78008b1f7800e7
:1004a0000000060091018800800478000000eb0045
:1004b0001a003700e284440032a0b4009905ba0063
:1004c000e284440032a0b4009906ba00e2844400f9
:1004d00032a0b4000006eb00476fde00fd07b2005b
:1004e000636ce10003003a00ebff07000000eb0043
:1004f0000a003700606ce10004003a00005deb0088
:100500008b05e900fdff3e00040037006168e10053
:10051000010032000086eb000b00070019c7ba008b
:100520001905ba000e04e00003003a000a00e000da
:10053000e0ff3a0000000600fe07b2009e018800be
:100540008a047800f5ff3700395dba008b05e900b1
:100550000c003200295dba008b05e900080032006a
:100560000c00e00003003a00e284440032a0b40032
:10057000f5ff370019ddba008b05e900faff3a00f4
:100580008904e800e184440032a0b40000000600c1
:100590003600f800809fbe00829fbe00849fbe0090
:1005a000869fbe000000fa00a11680000004200013
:1005b000008060000000e0000a003a00700980003e
:1005c0000080ea004f00de00004078000080fb0061
:1005d0004f00dd007109800001f0a10001007000f2
:1005e00070098800a11680000008200000806000cb
:1005f0000000e00002003a00fc0507002fe1a9001e
:10060000a116800000002200008060000000e000d1
:1006100002003a00100020005042880011168000ad
:1006200000082000008060000000e00001003a00a7
:100630004a28ef00a116800000002800008060001a
:100640000000e00003003a00100020002042880073
:100650003c28ef00a116800000002400008060000c
:100660000000e00006003a00e0418000e10f500089
:1006700003003a00100020001042880001003700fb
:100680004228ef0031178000001020000080600039
:100690000000e00006003a00e0418000e10f500059
:1006a00003003a00100020003042880001003700ab
:1006b0004628ef008660a9000080fa004f03be00c4
:1006c0004f02be004f01be004f00be003600f900d1
:1006d00000400600809fbe00821f78000000fa00e4
:1006e0007151800090428000808f50000f003100d7
:1006f000e0418000e10f50000c003a007051800092
:10070000ea00400090428000808f500003003900d2
:1007100090428000705188001600370070518000b0
:100720006a0040007051880012003700715180004b
:1007300090428000808f50000e003600e041800023
:10074000e10f50000b003a0070518000ea005000a9
:1007500090428000808f500003003e009042800055
:100760007051880003003700705180006a0050000b
:100770007051880010428000e10f50000b003a00d9
:1007800090518000ea00400040518000808f50006e
:1007900004003100905180006a00400090518800b0
:1007a00002003700405180009051880030428000a4
:1007b000e10f50000b003a0090518000ea00500019
:1007c000f0508000808f500004003600905180006f
:1007d0006a0050009051880002003700f0508000fd
:1007e0009051880020428000e10f500088003a00bc
:1007f00050518000e5004000d0352000808f50002f
:1008000004003e00505180006500400050518800b7
:100810000d00370050518000e5005000e035200009
:10082000808f500004003600505180006500500059
:100830005051880004003700e035200050518800f6
:10084000100020002052880060518000e500400028
:10085000604a2000808f500004003e0060518000fc
:1008600065004000605188000d0037006051800035
:10087000e5005000704a2000808f500004003600d0
:10088000605180006500500060518800040037000e
:10089000704a20006051880010002000305288000b
:1008a00070518000e5004000704b2000808f5000a8
:1008b00004003e00705180006500400070518800c7
:1008c0000d00370070518000e5005000804b200083
:1008d000808f500004003600705180006500500089
:1008e0007051880004003700804b20007051880050
:1008f000100020004052880080518000e500400038
:10090000c01b2000808f500004003e0080518000fa
:1009100065004000805188000d0037008051800044
:10092000e5005000d01b2000808f500004003600ee
:10093000805180006500500080518800040037001d
:10094000d01b2000805188001000200050528800e9
:1009500090518000e500400050272000808f50001b
:1009600004003e00905180006500400090518800d6
:100970000d00370090518000e500500060272000f6
:10098000808f5000040036009051800065005000b8
:1009900090518800040037006027200090518800a3
:1009a0001000200060528800205280000000e0000b
:1009b00017003200305280000000e00014003200c6
:1009c000405280000000e0001100320050528000d0
:1009d0000000e0000e003200605280000000e000e5
:1009e0000b0032000000eb00205288000000eb00fa
:1009f000305288000000eb00405288000000eb00fd
:100a0000505288000000eb00605288004428ef003c
:100a100080418000e10f5000eb003a00204280004e
:100a20000000e000e8003a0070418000e10f500053
:100a3000e5003a005051800065014000004280000e
:100a40006a00b90080007800409e200000804000cd
:100a500010007800800f51000400310050518000d8
:100a60006500400050518800170037005051800049
:100a700065015000004280006a00b90080007800e3
:100a8000409e20000080400010007800800f510040
:100a9000040036005051800065005000505188001d
:100aa00009003700004280006a00b9008000780029
:100ab000409e2000008040001000780050518800c7
:100ac0001000200020528800605180006501400025
:100ad000004280006a00b900000078008080e800d1
:100ae000409e20000080400010007800800f5100e0
:100af00004003100605180006500400060518800b2
:100b000019003700605180006501500000428000ec
:100b10006a00b900000078008080e800409e200054
:100b20000080400010007800800f51000400360063
:100b30006051800065005000605188000a00370055
:100b4000004280006a00b900000078008080e80060
:100b5000409e200000804000100078006051880016
:100b60001000200030528800705180006501400064
:100b7000004280006a00b90000007800e4004000f4
:100b8000409e20000080400010007800800f51003f
:100b900004003100705180006500400070518800f1
:100ba000190037007051800065015000004280003c
:100bb0006a00b90000007800e4004000409e200078
:100bc0000080400010007800800f510004003600c3
:100bd0007051800065005000705188000a00370095
:100be000004280006a00b90000007800e400400084
:100bf000409e200000804000100078007051880066
:100c000010002000405288008051800065014000a3
:100c1000004280006a00b90000007800e600400051
:100c2000409e20000080400010007800800f51009e
:100c30000400310080518000650040008051880030
:100c4000190037008051800065015000004280008b
:100c50006a00b90000007800e6004000409e2000d5
:100c60000080400010007800800f51000400360022
:100c70008051800065005000805188000a003700d4
:100c8000004280006a00b90000007800e6004000e1
:100c9000409e2000008040001000780080518800b5
:100ca00010002000505288009051800065014000e3
:100cb000004280006a00b90000007800e8004000af
:100cc000409e20000080400010007800800f5100fe
:100cd0000400310090518000650040009051880070
:100ce00019003700905180006501500000428000db
:100cf0006a00b90000007800e8004000409e200033
:100d00000080400010007800800f51000400360081
:100d10009051800065005000905188000a00370013
:100d2000004280006a00b90000007800e80040003e
:100d3000409e200000804000100078009051880004
:100d40001000200060528800205280000000e00067
:100d50001d003200305280000000e0001a00320016
:100d6000405280000000e000170032005052800026
:100d70000000e00014003200605280000000e0003b
:100d8000110032000000eb00205288000000eb0050
:100d9000305288000000eb00405288000000eb0059
:100da000505288000000eb00605288000042800032
:100db0000000e8000042880000428000e50f50007b
:100dc00001003a003028ef008a60a9000080fa0094
:100dd0004f0178004f00be0000400600801f7800e1
:100de0000000fa00c04080006a004000c040880057
:100df0008a00a9000080fa004f0078000040060039
:100e00003600f800809fbe00829fbe00849fbe0017
:100e1000869fbe000000fa0030418000e10f5000c4
:100e200010003200e10f500003003c000000e00021
:100e3000060032002e003700e20f5000160032008c
:100e4000e30f50001a003200290037002828ef0075
:100e500000c8b300220707001000200030418800be
:100e60002300370040418000419720006140780016
:100e700036070700404180000000e800404188003c
:100e800040418000f00f500016003a002000200082
:100e900030418800160037002828ef0000ccb3004e
:100ea0000f07070030002000304188001000370095
:100eb0004041800070004000419720006140780070
:100ec00022070700404180000000e8004041880000
:100ed00040418000f00f500004003a002628ef0047
:100ee0000300370000000000010037000000000090
:100ef0008780a9000080fa004f03be004f02be00a9
:100f00004f01be004f00be003600f9000040060051
:100f1000809fbe000000fa0010418000e20f5000e8
:100f20002e003200e20f500005003c000000e000ff
:100f30000a003200e10f5000170032005f00370056
:100f4000e40f500047003200e40f50003400350039
:100f5000e50f500054003200580037001041800067
:100f600080004000a0a22000008040001000780017
:100f700060088800d602a80060088000410d2300a8
:100f80000080500020418800104180000000e800ef
:100f90001041880049003700104180008000400067
:100fa000a0a22000008040001000780060088800a7
:100fb000d602a900d622a800204180008000780037
:100fc00060088000008050002041880010418000af
:100fd0000000e80010418800380037001041800010
:100fe00080004000a0a22000008040001000780097
:100ff00060088800d622a900d642a80020418000bf
:101000008000780060088000008050002041880047
:10101000104180000000e8001041880027003700e0
:101020001041800080004000a0a22000008040000d
:101030001000780060088800d642a900d662a80097
:10104000204180008000780060088000008050000f
:1010500020418800104180000000e8001041880015
:10106000160037001041800080004000a0a2200040
:10107000008040001000780060088800d662a90057
:10108000d702a8002041800080007800600880001e
:101090000080500020418800104180000000e800de
:1010a000104188000500370020418000600888005a
:1010b000d702a9002228ef000000000084e0a90068
:1010c0000080fa004f00be00004006003600f80025
:1010d000809fbe00829fbe00849fbe00869fbe0090
:1010e0000200fa00b0118000004f78001e00fb00e3
:1010f0006101b900f0fc2f00f1ff2f000200400059
:10110000838048006204200003002000820f50000a
:10111000838f58000c013e0000600100f40037008e
:10112000f3003700f2003700f1003700f00037001d
:1011300005013700040137000301370002013700c1
:101140000101370000013700ff003700fe003700c3
:10115000fd003700fc003700fb003700fa003700c5
:10116000f900370038003700570037008a00370091
:10117000a7003700aa003700f3003700300037001f
:10118000f1003700f0003700ef0037006c00370047
:10119000ed003700ec003700270037006f00370004
:1011a0008b0037002a003700e7003700e6003700e1
:1011b000e500370094003700e3003700e200370015
:1011c000e1003700e0003700df003700de003700c5
:1011d000dd003700dc003700db003700da003700c5
:1011e000d900370018003700370037006a00370091
:1011f000870037008a003700d3003700100037001f
:10120000d1003700d0003700cf0037004c00370046
:10121000cd003700cc003700070037004f00370003
:101220006b0037000a003700c7003700c6003700e0
:10123000c5003700740037002fe1a900c200370055
:10124000ea020700c00037002fe1a800be00370007
:10125000f041800080004000a0a2200000804000fb
:1012600010007800ea004000f041800000014000da
:1012700000a220000000410010007800808f500084
:10128000a2003e00e04180000000e000a1003a0022
:10129000f0418000f141800001814000a1a22000c6
:1012a0008100410091007800ea8040000001400088
:1012b000a0a22000000041000108780010002000da
:1012c000c0418800a0003700f0418000800040004d
:1012d000a0a220000080400010007800ea0050002a
:1012e000f04180000001400060a1200000004100aa
:1012f00010007800808f500088003900e0418000a5
:101300000000e00087003a00f0418000f1418000d9
:1013100001814000a1a220008100410091007800dd
:10132000ea80500000014000a0a22000000041001f
:101330000108780010002000c041880082003700ba
:10134000e041800000f0a7000000ea000000e90092
:101350004f00de00e04188007b00370010002000d5
:1013600050418800f04180008000400060a12000d2
:10137000008040008113200001087800f0418000c7
:101380008000400000a220000080400001522000a8
:10139000010878006c003700504180000000e00038
:1013a00062003200f0418000f14180000181400084
:1013b000a1a22000810041009100780000014000be
:1013c00060a1200000004100010878005e003700a5
:1013d000504180000000e00056003200f0418000e3
:1013e000f141800001814000a1a220008100410064
:1013f000910078000001400000a2200000004100a0
:1014000001087800500037002a28ef004e0037000e
:1014100010002000604188004028ef004a0037009b
:10142000604180000000e000440032000042800083
:10143000525180006a00b90080007800409e200070
:101440000080400002087800004280006251800065
:101450006a00b90080007800609e20000080400093
:101460000208780000428000725180006a00b900d2
:1014700080007800809e20000080400002087800f4
:1014800000428000825180006a00b900800078002c
:10149000a09e2000008040000208780000428000ea
:1014a000925180006a00b90080007800c09e200040
:1014b0000080400002087800004280000000e80040
:1014c0000042880000428000e50f50001d003a00f5
:1014d0002c28ef004028ef00100020007041880009
:1014e00010002000204288003c28ef001600370042
:1014f0001e00fb000003b100f0418800f0418000b5
:101500000000e900f04188000f00370000000000f3
:101510000d003700000000000b0037000000000045
:10152000090037000000000007003700000000003d
:101530000500370000000000030037000000000035
:10154000010037000000000087c0a9000080fa00f9
:101550004f03be004f02be004f01be004f00be0051
:101560003600f90000400600809fbe00821f780010
:101570000000fa00904180000000e000030032000b
:10158000e10f5000100032002b003700a041800016
:10159000c1e52800614078000000fb00a011880030
:1015a000a04180000000e800a0418800a041800028
:1015b000e30f50001d003a00100020009041880009
:1015c0003428ef001c003700b0418000a2418000a9
:1015d0007200b90000007800020040004185200040
:1015e000614078000080fb00a0118800a0418000cd
:1015f0000000e800a0418800a0418000f20f5000e8
:1016000004003a003428ef00b04180000000e800f8
:10161000b0418800b0418000f00f500005003a0052
:101620003228ef003628ef000300370000000000ea
:10163000010037000000000087e0a9000080fa00e8
:101640004f0178004f00be00004006003600f80051
:10165000809fbe00829fbe00849fbe00869fbe000a
:101660000000fa004603070085a0a9000080fa00e8
:101670004f03be004f02be004f01be004f00be0030
:101680003600f900004006000040da000000fe00cd
:101690000000050003f0a200889fbe008a9fbe00e4
:1016a0008c1f7800f9000700000133006450e1004e
:1016b0004f0032006420e1005200320003826c00cf
:1016c00007003b000905d0000306d000820f54003c
:1016d0000c065d000200390002003200890178002a
:1016e000030678008582550004003d000003fd00dc
:1016f0008103fd008502ea008b854200840f7200a1
:1017000002003b0060001000e08018006011b8008b
:101710000005eb007a28e1000a0039000600780095
:10172000c75ddd00f707b200878075002d00370028
:10173000828171000a017800610560008180d1001a
:101740000080d3008502e900f9ff3b000604400059
:101750008784480002003b0060041400e0841c0001
:101760000988a300070032008a817100828171001c
:10177000610164008904d1000884d3008b05e8006e
:10178000170037000978a30013003a000b00e000af
:10179000130034008b05e9000804440089844c00e0
:1017a0000a4474000978a3000d003a000b00e00021
:1017b000070034008b05e9000804440089844c00cc
:1017c00001003a000b0020000978a300f7ff320067
:1017d0000001eb0002003700828171000a017800ed
:1017e0006f0007000cf0a70001f0a000b800370060
:1017f0006420e10002003a00838f6c00b8003300df
:101800000801be000200be00b1003700889fbe0084
:101810008a9fbe008c1f78009c000700a300330045
:1018200003866c006450e1002e0032006420e10069
:10183000330032006150e1002f0032006120e100ee
:101840003100320085855500eb07b000090020000b
:1018500008042000050037000804440089844c0077
:101860000a0031000603430087834b000001530048
:1018700081815b00f8ff33000203be000800a00076
:101880000804440089844c00f6ff3900c639dd00a5
:101890008301730001003200130020008904d1008d
:1018a0000884d3000998a300050032000800a700af
:1018b0000300a0008904d1000884d3008b05e80050
:1018c0008904d1000884d3000001eb000281d2001a
:1018d0003300070001f0a1000cf0a70001f0a00008
:1018e0007b0037006420e1007d0032000801be006b
:1018f0000200be00f7ff37006120e10078003200ef
:101900006000b800f3ff37000000200001f8270056
:10191000f0ff37000001be00470007000470a70079
:1019200003f0a1006509b100160032000d0035007a
:101930006828e10006003500f0ff2f00f1ff2700c6
:101940000300e00013003b00010028000000050038
:1019500000004000818048008502e900fcff3a0059
:1019600008003700f88f420002003c008000eb00c6
:10197000000005008100d1000080d3008502e8004e
:10198000fcff3a000300e00002003b006000100092
:10199000e0801800000006006011b80097003700d2
:1019a00081002000618055000b003d000b002000ed
:1019b00061fe2f000100e1001d00340082817100f2
:1019c000610164008904d1000884d3000000e800ac
:1019d000faff3a007100200061006400030070000b
:1019e000020060000900320061044400e0844c0001
:1019f0000988a500050032008b05e8006808e100b1
:101a000002003a008904d1000884d300f20f2000bc
:101a10000258e10005003d00c75ddd00f907b20096
:101a20008980750008007800000006000bf8270088
:101a30008b00780000000500c70ade00f107b20045
:101a4000f50fb20008003200e1cf42000200320080
:101a50000170a00024000500810f70000100320019
:101a60000408050044000500810f700002003a00e0
:101a7000140005008502e9000000400081c0480014
:101a8000fcff3b000170a000240005000004be0024
:101a9000e9ff07000003be000405be000200be000f
:101aa000e5ff0700844f7500000006000200be003d
:101ab0006450e100050036006420e10002003600b9
:101ac0000968a30001003a000800be000160a00000
:101ad0004f0678004f05be004f04be000000060010
:101ae000f0ff2f00f1ff2700f9ff3700889fbe00ad
:101af0008a9fbe008c1f7800e4ff0700ebff3300d5
:101b000003866c006450e100240032006420e10090
:101b1000270032006150e100220032006120e10024
:101b2000210032008b854200eb07b1000134b80080
:101b3000003ab8000804420089844a00013ab8001b
:101b40000030b8008880400009014a0004003300da
:101b50000000400081804800020149008b05e90037
:101b6000c909dd008301700001003200130020006c
:101b7000c814de004814dd004709de001200b20080
:101b8000c808de000884700085ff070001f0a1008e
:101b90000cf0a70001f0a000cdff37006120e100ac
:101ba000cfff32000801be000200be00f7ff370081
:101bb0006150e100fcff3a00c9ff37006022b80025
:101bc000060220000000d0008180d2000482d200f2
:101bd0008582d2000000a0000202520083825a00d7
:101be000030031000202420083824a000000a1008b
:101bf0000603e900f3ff3a0000000600889fbe00dc
:101c00008a9fbe000082700004027100048271008d
:101c1000260032000004be000200be006011b800c1
:101c20006b092000950220000182cf000a003900d4
:101c30000541b1000082cf00070039000541b10025
:101c40000982cf00040039000541b1000882cf00ad
:101c5000010039000541b100054252001200320076
:101c60000a003b0082817100610164008100d100a3
:101c70000080d3008984d3000884d3008b05e8005a
:101c80000442e800f7ff3a00070037000804440068
:101c900089844c0000004800818048008b05e900e1
:101ca0000442e900f9ff3a003dff07004f05be007e
:081cb0004f04be000000060015
:020000040000fa
:081cb8001b5b00004800000066
:020000040000fa
:101cc0000000fa003021ef00400d2300b009880029
:101cd000d1098000f0fc2f00008060000050a000bf
:101ce000d00988003a21a9003ac1a9003be1a80027
:101cf0009a60a8000080fa00000006000000fa00c8
:101d00002621ef0000352c00500988007109800061
:101d1000f0fc2f00008060000040a00070098800e7
:101d20002e21a9002ec1a9002fe1a8009a00a80029
:101d30000080fa00000006000000fa001821ef0001
:101d4000400d2300e008880001098000f0fc2f000e
:101d5000008060000040a000000988002021a90048
:101d600020c1a90021e1a8009780a8000080fa0006
:101d7000000006000000fa000a21ef0000c429005c
:101d80007008880091088000f0fc2f00008060003f
:101d9000900888001221a90012c1a90013e1a8002f
:101da0009500a9000080fa00000006000000fa007b
:101db0000621ef00400d23006008880081088000a4
:101dc000f0fc2f00008060000050a0008008880018
:101dd0001021a90010c1a90011e1a80094e0a800f9
:101de00084e0a9000080fa00000006000000fa006c
:101df0001828ef001a28ef001c28ef001e28ef001b
:101e000010002000004188000080fa000000060059
:101e10000000fa0000418000e10f50000d003a0080
:101e2000d1408000408520003004b000ae030700a0
:101e3000f140800040852000d003b000aa030700d5
:101e4000e1408000408520000004b000a6030700a8
:101e50002028ef000080fa00000006000000fa00d1
:101e6000c140800040062000808f500016003a00dc
:101e7000201680006400600000f0a7000000ea0067
:101e80000000e9004f00de00004078000080fb0009
:101e9000610060004200dd00211680000120a100e9
:101ea00001007000201688001828ef00d040800044
:101eb0000000e800d0408800d1408000408520002c
:101ec0003004b00088030700d0408000ea0f5000c3
:101ed00015003a00201680006100600000f0a700a5
:101ee0000000ea000000e9004f00de00004078003a
:101ef0000080fb0061006000211680000100a1004d
:101f000001007000201688001a28ef00e0408000d1
:101f10000000e800e0408800e140800040852000ab
:101f20000004b00070030700e1408000c0032000ff
:101f3000808f500008003a001c28ef00f04080001d
:101f40000000e800f0408800f1408000408520005b
:101f5000d003b000640307000080fa000000060010
:101f60000200fa00000f78000080fa00000006006e
:101f70000e00fa00600798003421ef006e00900018
:101f8000cf80de0002c429000289b9000201780076
:101f90006002b900840178000301410003c42900f4
:101fa0000300b8000101410082007800008fbe00ec
:101fb000008fbe00000020001100200020079800c4
:101fc000310798002e019000be0190001e00be0057
:101fd000fafe070040079800510798004e00900055
:101fe000de009000e00f5000e08f580007003a003c
:101ff0001e007800c0098800e1098000f0fc2f0075
:1020000000806000e00988003a0037004e0190002f
:10201000de0190007000200001002000800f5100c0
:10202000818f59000d003e001e00be004d09dd00ed
:102030004300de0000007100c308de0000007800ed
:10204000c0098800e1098000f0fc2f0000806000da
:102050000040a000e0098800260037004e019000f3
:10206000de019000f003200001002000800f5100ed
:10207000818f59000d003e001e00be004a09dd00a0
:102080004600de0000007100c608de000000780097
:10209000c0098800e1098000f0fc2f00008060008a
:1020a0000050a000e0098800120037004e019000a7
:1020b000de019000f00f200001002000800f510091
:1020c000818f59000b003e001e00be004809dd0054
:1020d0004800de0000007100c808de000000780043
:1020e000c0098800e10980000003200001007000a1
:1020f000e00988003c21a9003cc1a9008a80a90010
:102100003de1a80000000000500480007000600065
:102110000000e000fcff32008a80a9003de1a90038
:102120000080fa00000006000e00fa006007980028
:102130003421ef006e009000cf80de00820220008c
:102140000289b900020178006002b90084017800b8
:1021500003014100830220000300b8000101410097
:1021600082007800008fbe00008fbe0000002000bb
:102170001100200020079800310798002e019000e0
:10218000be0190001e00be008cfe070040079800b4
:10219000510798004e009000de009000e00f5000c4
:1021a000e08f580007003a001e007800c009880040
:1021b000e1098000f0fc2f0000806000e009880049
:1021c0003a0037004e019000de01900070002000c0
:1021d00001002000800f5100818f59000d003e004a
:1021e0001e00be004d09dd004300de00000071004e
:1021f000c308de0000007800c0098800e109800003
:10220000f0fc2f00008060000040a000e009880082
:10221000260037004e019000de019000f003200000
:1022200001002000800f5100818f59000d003e00f9
:102230001e00be004a09dd004600de0000007100fd
:10224000c608de0000007800c0098800e1098000af
:10225000f0fc2f00008060000050a000e009880022
:10226000120037004e019000de019000f00f2000b8
:1022700001002000800f5100818f59000b003e00ab
:102280001e00be004809dd004800de0000007100ad
:10229000c808de0000007800c0098800e10980005d
:1022a0000003200001007000e00988003c21a90023
:1022b0003cc1a9008a80a9003de1a80000000000ff
:1022c00050048000700060000000e000fcff32005d
:1022d0008a80a9003de1a9000080fa000000060004
:1022e0000000fa002023ef0001198000f0f12f0018
:1022f000008060000060a000001988002043a80052
:102300002223ef002423ef002119800000f0210098
:10231000010070002019880030c0b30024e3b7002a
:102320003223ef002623ef002823ef00411980001d
:1023300000fe2f00008060005000b30040198800ac
:102340002e23ef003023ef000080eb0050198800af
:102350000080eb00601988002ca3a9002c83a90041
:102360002c03a9002c23a9002c43a90085a0a900b7
:1023700095a0a80021e3a8000080fa000000060054
:102380000000fa0040198000004078007f406000a3
:102390000080fb00e20f500024003200e20f5000ea
:1023a00005003c000000e00008003200e10f500092
:1023b0001200320043003700e40f500027003200c3
:1023c000e50f5000310032003e003700b040800081
:1023d0000118800000014000409b200000004100e7
:1023e000010878004119800000fe2f000080600085
:1023f0000000a0004019880032003700b040800083
:102400000118800000014000409c200000004100b5
:10241000010878004119800000fe2f000080600054
:102420000010a0004019880026003700b04080004e
:102430000118800000014000409d20000000410084
:10244000010878004119800000fe2f000080600024
:102450000020a000401988001a003700b04080001a
:102460000118800000014000409a20000000410057
:10247000010878004119800000fe2f0000806000f4
:102480005000b300401988000e003700b0408000b3
:102490000118800000014000409920000000410028
:1024a00001087800b04080000000e800b0408800db
:1024b0004119800000fe2f00008060004019880054
:1024c00000000000b0408000e80f500004003a0017
:1024d0001628ef00100020003040880021e3a900fa
:1024e000004080001140800061004000e080480012
:1024f00000408800114088000080fa0000000600bb
:102500000200fa000828ef000a28ef000c28ef006c
:102510000e28ef001028ef000000eb00000f7800fd
:10252000290037001e0078008000400040992000fc
:102530000080400090007800404080000080400013
:10254000404088001e00780080004000409a200033
:1025500000804000900078005040800000804000e3
:10256000504088001e00780080004000409b200002
:1025700000804000900078006040800000804000b3
:10258000604088001e00780080004000409c2000d1
:102590000080400090007800704080000080400083
:1025a000704088001e00780080004000409d2000a0
:1025b0000080400090007800804080000080400053
:1025c000804088001e0fe8001e007800e70f5000d2
:1025d000d4ff3600404080004300de0040408800c9
:1025e000504080004300de00504088006040800082
:1025f0004300de0060408800704080004300de0041
:1026000070408800804080004300de0080408800e9
:102610004140800040852000f004b000d601070052
:1026200051408000408520001006b000d201070014
:1026300061408000408520002008b000ce010700e6
:1026400071408000408520004009b000ca010700a9
:102650008140800040852000600ab000c60107006c
:1026600021e3a8000080fa00000006000000fa0044
:102670006140800050182000808f50000400360018
:1026800061408000e0242000808f50001900360057
:102690006140800050182000808f500009003e00eb
:1026a00051518000b050800065004000808f500084
:1026b00004003900604280000000e90060428800a8
:1026c0000c00370061408000e0242000808f500023
:1026d0000800360051518000005180006500500014
:1026e000808f500003003e00904080000000e80012
:1026f000904088009140800050092000808f500059
:10270000040034001228ef005051800065004000a2
:1027100050518800604280000000e00005003c004d
:102720006009200060428800505180006500500020
:10273000505188007140800010172000808f500099
:102740000400360071408000a0232000808f5000dc
:10275000190036007140800010172000808f500053
:1027600009003e0061518000c050800065004000bb
:10277000808f500004003900704280000000e900a2
:10278000704288000c00370071408000a0232000b8
:10279000808f500008003600615180001051800089
:1027a00065005000808f500003003e00a040800074
:1027b0000000e800a0408800a140800050092000ef
:1027c000808f5000040034001428ef006051800016
:1027d0006500400060518800704280000000e00009
:1027e00005003c00600920007042880060518000b4
:1027f000650050006051880080408000210020006a
:102800008b02070090428800404080003100200089
:10281000870207008051880010002000c041880016
:082820000080fa000000060030
:020000040000fa
:102828005408000040010000020000004453450025
:1028380020323300205052004f59450043544f0076
:10284800200d0a0049616e0020462e0020792000e4
:102858004c756900732043002e0d0a003d3d3d0074
:10286800494e46004f2050004943320034483d004d
:102878003d0d0a0043524f004e4f3a00202d2d00c7
:102888003a2d2d003a2d2d00200d0a00504f5400ee
:10289800454e3a00202d2d002d2d2000202020000f
:1028a800200d0a0054454d0050453a00202d2d00ba
:1028b8002d2d200020202000200d0a003d3d3d0048
:1028c8003d4a4f005953540049434b00533d3d0086
:1028d8003d0d0a0050783a00202d2d002d2d2000a6
:1028e8002020200020202000200d0a0050793a00e6
:1028f800202d2d002d2d200020202000202020001c
:10290800200d0a00504c3a00202d2d002d2d2000be
:102918002020200020202000200d0a003d3d3d0001
:102928003d3d5300455256004f533d003d3d3d004f
:102938003d0d0a0053657200766f2000313a200081
:102948002d2d2d002d202000200d0a00536572002a
:10295800766f2000323a20002d2d2d002d202000ea
:10296800200d0a0053657200766f2000333a20006c
:102978002d2d2d002d202000200d0a0053657200fa
:10298800766f2000343a20002d2d2d002d202000b8
:10299800200d0a0053657200766f2000353a20003a
:1029a8002d2d2d002d202000200d0a004453450018
:1029b80020323300205052004f59450043544f00f5
:1029c800202d2d002d205000554c53004120530040
:1029d80033202d002d2d00004808000004000000c1
:1029e800020000000100ff00ff0000005008000086
:1029f800020000000000000042080000060000007d
:102a080000000000440a00000a0000000000000066
:102a1800180800001200000000000000340a00003e
:102a2800100000000200000030313200333435005d
:102a380036373800390000000000000000000000b0
:102a48002a0800000e0000000000000094090000a1
:102a580050000000000000000008000018000000fe
:102a6800000000004c080000040000000200000004
:102a78009600960000000000160a00001e000000e4
:102a88000200000038013800013801003801c80090
:102a980002200500200520000520050084055e00b1
:102aa80003a70400b804bd0001760200e409000091
:102ab8003200000000000000380800000a00000092
:102ac80000000000520800000200000002000000a0
:082ad800b8040000000000003a
:020000040000fa
:102ae0000200fa00004f7800d6a2a900cbe2a900ac
:102af000e116800000f02f0000806000e0168800e2
:102b00009e00fb00e016800001007000e0168800c7
:102b1000d682a800000000000000000000000000b5
:102b200000000000000000000000000000000000a5
:102b3000000000000000000000000000d682a90094
:102b4000d6a2a8000080fa00000006000200fa00e9
:102b5000004f7800d6a2a900cbe2a800e1168000c1
:102b600000f02f0000806000e01688009e00fb004f
:102b7000e016800001007000e0168800d682a800f0
:102b80000000000000000000000000000000000045
:102b90000000000000000000000000000000000035
:102ba0000000000000000000d682a900cbe2a900ce
:102bb000d6a2a8000080fa00000006000000fa007b
:102bc000f0002000eafc0700e116800000f02f0072
:102bd00000806000e0168800d6a2a900cbe2a90020
:102be000d682a900c116800000f02f00008060008e
:102bf000c0168800d2a2a900c7e2a900d282a9000b
:102c000080c3b300b6ff070050002000d8fc0700c7
:102c100080c3b300b2ff07004006200042fd07005a
:102c200080c3b300aeff0700800220003efd070016
:102c300080c3b300aaff0700800220003afd07000e
:102c4000c0c0b300a6ff07008002200036fd0700c9
:102c500060c0b300a2ff07008002200032fd070021
:102c60000080fa00000006000400fa00000f78005f
:102c700021479800090037001e00780010407800b6
:102c80001e0fe800b1ff07008002200026fd0700ac
:102c90002e4090000040e900204798002e40900010
:102ca0000004e000f4ff3a000080fa000000060093
:102cb0000000fa0000c8b30089ff0700800220006e
:102cc00019fd07000080fa00000006000000fa006d
:102cd00000ccb30082ff07008002200012fd070035
:102ce0000080fa00000006000600fa0010079800b5
:102cf00021079800ae00900030062000808f500021
:102d000001003600ffff3700ae009000d0cc2c0051
:102d10000008b8004308de00004f78001e80fb006a
:102d200041a32000614f78001e0090001e487800eb
:102d30001e0090000000e800100798002e0190008f
:102d4000d0cc2c000010b8004308de006a00b900a7
:102d50000000780000005100004f78001e80fb004a
:102d600041a32000614f78001e0090001e487800ab
:102d70000080fa00000006000600fa001007980024
:102d800021079800ae009000f0702200808f500064
:102d900001003600ffff37002e009000c300de0068
:102da000500c22000008b8004408de00004f7800f4
:102db0001e80fb0041a32000614f78001e009000a0
:102dc0001e4878001e0090000000e80010079800e0
:102dd0002e009000c200de00b04721000008b800bd
:102de0000101d100d0cc2c000010b8004308de0057
:102df0006a00b9000000780000005100004f780020
:102e00001e80fb0041a32000614f78001e0090004f
:102e10001e4878001e0090000000e800100798008f
:102e2000ae009000d0cc2c000008b8004309de00b2
:102e3000d0cc2c000010b8004308de006a00b900b6
:102e40000000780000005100004f78001e80fb0059
:102e500041a32000614f78001e0090001e487800ba
:102e60001e0090000000e800100798002e0190005e
:102e7000d0cc2c000010b8004308de006a00b90076
:102e80000000780000005100004f78001e80fb0019
:102e900041a32000614f78001e0090001e4878007a
:102ea0000080fa00000006000400fa0010079800f5
:102eb0001e009000104078000080fb004800dd00fc
:102ec000800078001e0090000000e80010407800ac
:102ed0000080fb00008f70001e0078000080fa0068
:102ee000000006000200fa00000f78001e007800c3
:102ef000e10f500025003a0040428000ee0f5000e4
:102f000022003c005028ef00190037008242800068
:102f100040428000834280007200b90000007800c7
:102f20000300400041852000e140780040972000e8
:102f30000170790082428000404280000000e80079
:102f4000834280007200b900000078000300400056
:102f500041852000e14078004097200002004000b9
:102f600001509800804280000000e8008042880004
:102f700080428000ef0f5000e4ff340040428000a8
:102f80000000e80040428800270037001e0078005b
:102f90000000e00024003a00404280000000e00011
:102fa000210034005028ef001900370082428000d1
:102fb000404280000000e900834280007200b900b6
:102fc000000078000300400041852000e1407800c7
:102fd00040972000017079008242800040428000ca
:102fe000834280007200b9000000780003004000b6
:102ff00041852000e1407800409720000200400019
:1030000001509800804280000000e8008042880063
:1030100080428000ef0f5000e4ff34004042800007
:103020000000e900404288000080fa00000006002d
:103030000200fa000000eb00000f78000000eb0037
:10304000000f780015003700404280000000e900c2
:103050007200b900000078001e0040004185200089
:10306000e1407800409720001e00400001487800b1
:10307000404280007200b900000078001e0040004d
:1030800041852000e1407800409720001e0040006c
:1030900070004000014878001e0fe8001e00780014
:1030a000ef0f5000e8ff34000080fa000000060037
:1030b0000000fa0089000700b1000700b90007000e
:1030c000c3000700bdfe0700f9fe0700409720007f
:1030d00001c1b300e4fe0700fcfe0700409720009a
:1030e0007000400001c1b300dffe070000000000d7
:1030f000a116800000042000008060000000e000b5
:10310000fbff3a000000eb0076ff070037fb0700eb
:10311000fafa070008fb0700c7000700b400070021
:103120003422ef0013fb07006dfc0700a800070026
:103130001efb070027000700e1fa07000100370027
:103140000000000045fb070031fb070050428000f3
:103150000000e00005003a000000eb0061ff0700fe
:103160000080eb005042880007003700504280008a
:10317000e10f500004003a001000200059ff070042
:103180000080eb005042880040428000e10f500078
:1031900001003400a6ff070030408000e10f50001e
:1031a00002003a00d6fc07000628ef00c04180006c
:1031b0000000e00002003200060007003828ef009f
:1031c000e04180000000e000ddff320027fd070045
:1031d000dcff37000200fa000000eb00000f78006f
:1031e0000e0037001e00780080004000a0a22000e2
:1031f0000080400010017800438520001e00780008
:103200007200b90000007800f00cb00000804100ae
:1032100082007800d8fe07001e0fe8001e0078002c
:10322000e40f5000efff34000080fa0000000600b9
:103230000400fa00889fbe00000f78001107980074
:103240001e0078008000eb00d3f907000004be00e8
:103250001e0090008000400000a22000008040007e
:10326000900078001e0090000001400060a1200046
:103270000000410010007800008050008000eb004a
:10328000c5f9070002002c00f34724005ff907008e
:103290000001be000800be0014fa07000004be00d2
:1032a0001e0090008000400060a1200000804000cf
:1032b000100078008000eb00b7f907000001be00a5
:1032c0000800be00f4f8070092f90700000078003b
:1032d0004f04be000080fa00000006000000fa0063
:1032e00060022000303a8800213a8000f0f32f007d
:1032f00000806000203a8800213a800000fe2f0004
:1033000000806000203a880040a7a9003200200019
:1033100080072000a1092000337420008049780034
:103320008149780082497800120020006004200062
:1033300071052000237420008049780081497800bd
:103340008249780000000000113a80000000270048
:103350008080600000002300808f5000faff3a0058
:1033600000000000113a8000000220000080600090
:103370000000e000fbff32000080fa0000000600c1
:103380000000fa0000f02f000016880021168000cf
:1033900000f02f0000806000201688000080fa00f6
:1033a000000006000000fa000080eb0050198800c1
:1033b000d3a2a800d2c2a800c0e2a800d3c2a8002d
:1033c000d3e2a800e502a8000080fa000000060091
:1033d0000000fa00d202a900d222a900d242a9001c
:1033e000d262a900d302a9000080fa000000060002
:1033f0000000fa0030102000c01188003022ef00d9
:103400003062a8003222ef0087c0a90087e0a9003f
:1034100097c0a80097e0a8009c40a9003222a9000c
:1034200031e2a8003342a800b00120003efb0700b3
:103430000080fa00000006000000fa0061e0a80029
:103440006200a80062e0a8006260a8006280a80094
:103450006140a80062a0a8009660a8008660a9004c
:083460000080fa0000000600e4
:020000040000fa
:0200000401f009
:04000c00fbff0000f6
:020000040000fa
:0200000401f009
:040010007dff000070
:020000040000fa
:0200000401f009
:040014007fff00006a
:00000001FF
