:020000040000fa
:080000000002040000000000f2
:020000040000fa
:04000800640600008a
:020000040000fa
:04000c006406000086
:020000040000fa
:040010006406000082
:020000040000fa
:04001400640600007e
:020000040000fa
:04001800640600007a
:020000040000fa
:04001c006406000076
:020000040000fa
:040020006406000072
:020000040000fa
:04002400640600006e
:020000040000fa
:04002800640600006a
:020000040000fa
:04002c006406000066
:020000040000fa
:040030006406000062
:020000040000fa
:04003400640600005e
:020000040000fa
:04003800640600005a
:020000040000fa
:04003c006406000056
:020000040000fa
:040040006406000052
:020000040000fa
:04004400f4030000c1
:020000040000fa
:04004800640600004a
:020000040000fa
:04004c006406000046
:020000040000fa
:040050006406000042
:020000040000fa
:04005400640600003e
:020000040000fa
:04005800640600003a
:020000040000fa
:04005c004606000054
:020000040000fa
:040060006406000032
:020000040000fa
:04006400640600002e
:020000040000fa
:04006800640600002a
:020000040000fa
:04006c006406000026
:020000040000fa
:040070006406000022
:020000040000fa
:04007400c8020000be
:020000040000fa
:04007800640600001a
:020000040000fa
:04007c006406000016
:020000040000fa
:040080006406000012
:020000040000fa
:04008400640600000e
:020000040000fa
:04008800640600000a
:020000040000fa
:04008c006406000006
:020000040000fa
:040090006406000002
:020000040000fa
:0400940064060000fe
:020000040000fa
:040098006c030000f5
:020000040000fa
:04009c0064060000f6
:020000040000fa
:0400a000d204000086
:020000040000fa
:0400a400d40500007f
:020000040000fa
:0400a80064060000ea
:020000040000fa
:0400ac0064060000e6
:020000040000fa
:0400b00064060000e2
:020000040000fa
:0400b40064060000de
:020000040000fa
:0400b80064060000da
:020000040000fa
:0400bc0064060000d6
:020000040000fa
:0400c00064060000d2
:020000040000fa
:0400c40064060000ce
:020000040000fa
:0400c80064060000ca
:020000040000fa
:0400cc0064060000c6
:020000040000fa
:0400d00064060000c2
:020000040000fa
:0400d40064060000be
:020000040000fa
:0400d80064060000ba
:020000040000fa
:0400dc0064060000b6
:020000040000fa
:0400e00064060000b2
:020000040000fa
:0400e40064060000ae
:020000040000fa
:0400e8005a030000b7
:020000040000fa
:0400ec0064060000a6
:020000040000fa
:0400f00064060000a2
:020000040000fa
:0400f4004a030000bb
:020000040000fa
:0400f800640600009a
:020000040000fa
:0400fc006406000096
:020000040000fa
:040100006406000091
:020000040000fa
:04010400640600008d
:020000040000fa
:040108006406000089
:020000040000fa
:04010c006406000085
:020000040000fa
:040110006406000081
:020000040000fa
:04011400640600007d
:020000040000fa
:040118006406000079
:020000040000fa
:04011c006406000075
:020000040000fa
:040120006406000071
:020000040000fa
:04012400640600006d
:020000040000fa
:040128006406000069
:020000040000fa
:04012c006406000065
:020000040000fa
:040130006406000061
:020000040000fa
:04013400640600005d
:020000040000fa
:040138006406000059
:020000040000fa
:04013c006406000055
:020000040000fa
:040140006406000051
:020000040000fa
:04014400640600004d
:020000040000fa
:040208006406000088
:020000040000fa
:04020c006406000084
:020000040000fa
:040210006406000080
:020000040000fa
:04021400640600007c
:020000040000fa
:040218006406000078
:020000040000fa
:04021c006406000074
:020000040000fa
:040220006406000070
:020000040000fa
:04022400640600006c
:020000040000fa
:040228006406000068
:020000040000fa
:04022c006406000064
:020000040000fa
:040230006406000060
:020000040000fa
:04023400640600005c
:020000040000fa
:040238006406000058
:020000040000fa
:04023c006406000054
:020000040000fa
:040240006406000050
:020000040000fa
:04024400640600004c
:020000040000fa
:040248006406000048
:020000040000fa
:04024c006406000044
:020000040000fa
:040250006406000040
:020000040000fa
:04025400640600003c
:020000040000fa
:040258006406000038
:020000040000fa
:04025c006406000034
:020000040000fa
:040260006406000030
:020000040000fa
:04026400640600002c
:020000040000fa
:040268006406000028
:020000040000fa
:04026c006406000024
:020000040000fa
:040270006406000020
:020000040000fa
:04027400640600001c
:020000040000fa
:040278006406000018
:020000040000fa
:04027c006406000014
:020000040000fa
:040280006406000010
:020000040000fa
:04028400640600000c
:020000040000fa
:040288006406000008
:020000040000fa
:04028c006406000004
:020000040000fa
:040290006406000000
:020000040000fa
:0402940064060000fc
:020000040000fa
:0402980064060000f8
:020000040000fa
:04029c0064060000f4
:020000040000fa
:0402a00064060000f0
:020000040000fa
:0402a40064060000ec
:020000040000fa
:0402a80064060000e8
:020000040000fa
:0402ac0064060000e4
:020000040000fa
:0402b00064060000e0
:020000040000fa
:0402b40064060000dc
:020000040000fa
:0402b80064060000d8
:020000040000fa
:0402bc0064060000d4
:020000040000fa
:0402c00064060000d0
:020000040000fa
:0402c40064060000cc
:020000040000fa
:0402c80064060000c8
:020000040000fa
:0402cc0064060000c4
:020000040000fa
:0402d00064060000c0
:020000040000fa
:0402d40064060000bc
:020000040000fa
:0402d80064060000b8
:020000040000fa
:0402dc0064060000b4
:020000040000fa
:0402e00064060000b0
:020000040000fa
:0402e40064060000ac
:020000040000fa
:0402e80064060000a8
:020000040000fa
:0402ec0064060000a4
:020000040000fa
:0402f00064060000a0
:020000040000fa
:0402f400640600009c
:020000040000fa
:0402f8006406000098
:020000040000fa
:0402fc006406000094
:020000040000fa
:04030000640600008f
:020000040000fa
:04030400640600008b
:020000040000fa
:040308006406000087
:020000040000fa
:04030c006406000083
:020000040000fa
:04031000640600007f
:020000040000fa
:04031400640600007b
:020000040000fa
:040318006406000077
:020000040000fa
:04031c006406000073
:020000040000fa
:04032000640600006f
:020000040000fa
:04032400640600006b
:020000040000fa
:040328006406000067
:020000040000fa
:04032c006406000063
:020000040000fa
:04033000640600005f
:020000040000fa
:04033400640600005b
:020000040000fa
:040338006406000057
:020000040000fa
:04033c006406000053
:020000040000fa
:04034000640600004f
:020000040000fa
:04034400640600004b
:020000040000fa
:10040000af9f20000e7f24000e0188000000000036
:10041000000020000000e000020032000001200087
:100420002002880014000700290207000000e000f5
:1004300003003a0000f32000010020000200370012
:100440000000200001002000810f70000100320038
:1004500014000700000020000000e000020032004d
:1004600000000200000000003a140200000000003a
:100470000040da000000fe004440a90040002000d7
:100480000000e0000300320000002000a00188000e
:100490004440a800000006008a1f78008b1f7800e7
:1004a0000000060091018800800478000000eb0045
:1004b0001a003700e284440032a0b4009905ba0063
:1004c000e284440032a0b4009906ba00e2844400f9
:1004d00032a0b4000006eb00476fde00fd07b2005b
:1004e000636ce10003003a00ebff07000000eb0043
:1004f0000a003700606ce10004003a00005deb0088
:100500008b05e900fdff3e00040037006168e10053
:10051000010032000086eb000b00070019c7ba008b
:100520001905ba000e04e00003003a000a00e000da
:10053000e0ff3a0000000600fe07b2009e018800be
:100540008a047800f5ff3700395dba008b05e900b1
:100550000c003200295dba008b05e900080032006a
:100560000c00e00003003a00e284440032a0b40032
:10057000f5ff370019ddba008b05e900faff3a00f4
:100580008904e800e184440032a0b40000000600c1
:100590003600f800809fbe00829fbe00849fbe0090
:1005a000869fbe000000fa00a11680000004200013
:1005b000008060000000e0000a003a00700980003e
:1005c0000080ea004f00de00004078000080fb0061
:1005d0004f00dd007109800001f0a10001007000f2
:1005e00070098800a11680000008200000806000cb
:1005f0000000e00002003a008c0307002fe1a90090
:10060000a116800000002200008060000000e000d1
:1006100002003a0010002000d0418800111680002e
:1006200000082000008060000000e00001003a00a7
:100630003a28ef00a116800000002800008060002a
:100640000000e0000b003a002e28ef00e03520000b
:10065000b04e8800704a2000c04e8800804b2000b9
:10066000d04e8800d01b2000e04e8800602720007c
:10067000f04e88008660a9000080fa004f03be009b
:100680004f02be004f01be004f00be003600f90011
:1006900000400600801f78000000fa0010002000d3
:1006a000604188008a00a9000080fa004f007800ad
:1006b00000400600801f78000000fa00c040800063
:1006c0006a004000c04088008a00a9000080fa004b
:1006d0004f007800004006003600f800809fbe0002
:1006e000829fbe00849fbe00869fbe000000fa006d
:1006f00030418000e10f500010003200e10f500047
:1007000003003c000000e000060032002e0037002d
:10071000e20f500016003200e30f50001a003200c2
:10072000290037002828ef0000c8b3006f06070033
:100730001000200030418800230037004041800035
:1007400061962000614078008306070040418000e8
:100750000000e8004041880040418000f00f500058
:1007600016003a00200020003041880016003700b3
:100770002828ef0000ccb3005c0607003000200002
:100780003041880010003700404180007000400078
:1007900061962000614078006f06070040418000ac
:1007a0000000e8004041880040418000f00f500008
:1007b00004003a002628ef00030037000000000084
:1007c00001003700000000008780a9000080fa00c7
:1007d0004f03be004f02be004f01be004f00be00df
:1007e0003600f90000400600809fbe000000fa00bd
:1007f00010418000e20f50002e003200e20f500046
:1008000005003c000000e0000a003200e10f50004b
:10081000170032005f003700e40f5000470032003d
:10082000e40f500034003500e50f50005400320052
:10083000580037001041800080004000609d20007b
:10084000008040001000780060088800d602a800f0
:1008500060088000410d2300008050002041880086
:10086000104180000000e800104188004900370076
:100870001041800080004000609d2000008040000a
:100880001000780060088800d602a900d622a800cf
:1008900020418000800078006008800000805000c7
:1008a00020418800104180000000e80010418800cd
:1008b000380037001041800080004000609d20001b
:1008c000008040001000780060088800d622a9004f
:1008d000d642a80020418000800078006008800097
:1008e0000080500020418800104180000000e80096
:1008f0001041880027003700104180008000400030
:10090000609d200000804000100078006008880092
:10091000d642a900d662a80020418000800078005d
:100920006008800000805000204188001041800055
:100930000000e800104188001600370010418000d8
:1009400080004000609d2000008040001000780082
:1009500060088800d662a900d702a8002041800064
:1009600080007800600880000080500020418800ee
:10097000104180000000e8001041880005003700a9
:100980002041800060088800d702a9002228ef00db
:100990000000000084e0a9000080fa004f00be00c3
:1009a000004006003600f800809fbe00829fbe0017
:1009b000849fbe00869fbe000200fa00b011800036
:1009c000004f78001e00fb0041062000810f500000
:1009d0003e00320041062000810f50000a003c001a
:1009e00011032000810f50006700350051032000e3
:1009f000810f50005600340031062000810f500056
:100a00001600320060003700d1062000810f500030
:100a100048003200d1062000810f500004003c0045
:100a200091062000810f50000a0032005600370066
:100a300001072000810f5000040032003107200020
:100a4000810f5000070032004f0037002fe1a9004e
:100a50004d003700750207004b0037002fe1a8005a
:100a6000490037008041800080004000609d2000e8
:100a70000080400010007800ea0040001042800032
:100a8000808f500039003e00704180000000e0007f
:100a900038003a008041800081418000018140009f
:100aa000619d20008100410091007800ea804000b3
:100ab00000014000609d2000000041000108780016
:100ac00010002000504188002f0037008041800036
:100ad00080004000609d20000080400010007800f1
:100ae000ea00500000428000808f5000230039004f
:100af000704180000000e00022003a008041800048
:100b00008141800001814000619d20008100410001
:100b100091007800ea80500000014000609d2000b4
:100b200000004100010878001000200050418800ba
:100b3000150037007041800000f0a7000000ea00b7
:100b40000000e9004f00de00704188000e00370011
:100b50001e00fb000003b10080418800804180003e
:100b60000000e90080418800070037000000000015
:100b700005003700000000000300370000000000ff
:100b8000010037000000000087c0a9000080fa00c3
:100b90004f03be004f02be004f01be004f00be001b
:100ba0003600f90000400600809fbe00821f7800da
:100bb0000000fa00904180000000e00003003200d5
:100bc000e10f5000100032002b003700a0418000e0
:100bd000c1972800614078000000fb00a011880048
:100be000a04180000000e800a0418800a0418000f2
:100bf000e30f50001d003a001000200090418800d3
:100c00003428ef001c003700b0418000a241800072
:100c10007200b900000078000200400061842000ea
:100c2000614078000080fb00a0118800a041800096
:100c30000000e800a0418800a0418000f20f5000b1
:100c400004003a003428ef00b04180000000e800c2
:100c5000b0418800b0418000f00f500005003a001c
:100c60003228ef003628ef000300370000000000b4
:100c7000010037000000000087e0a9000080fa00b2
:100c80004f0178004f00be00004006003600f8001b
:100c9000809fbe00829fbe00849fbe00869fbe00d4
:100ca0000000fa004603070085a0a9000080fa00b2
:100cb0004f03be004f02be004f01be004f00be00fa
:100cc0003600f900004006000040da000000fe0097
:100cd0000000050003f0a200889fbe008a9fbe00ae
:100ce0008c1f7800f9000700000133006450e10018
:100cf0004f0032006420e1005200320003826c0099
:100d000007003b000905d0000306d000820f540005
:100d10000c065d00020039000200320089017800f3
:100d2000030678008582550004003d000003fd00a5
:100d30008103fd008502ea008b854200840f72006a
:100d400002003b0060001000e08018006011b80055
:100d50000005eb007a28e1000a003900060078005f
:100d6000c75ddd00f707b200878075002d003700f2
:100d7000828171000a017800610560008180d100e4
:100d80000080d3008502e900f9ff3b000604400023
:100d90008784480002003b0060041400e0841c00cb
:100da0000988a300070032008a81710082817100e6
:100db000610164008904d1000884d3008b05e80038
:100dc000170037000978a30013003a000b00e00079
:100dd000130034008b05e9000804440089844c00aa
:100de0000a4474000978a3000d003a000b00e000eb
:100df000070034008b05e9000804440089844c0096
:100e000001003a000b0020000978a300f7ff320030
:100e10000001eb0002003700828171000a017800b6
:100e20006f0007000cf0a70001f0a000b800370029
:100e30006420e10002003a00838f6c00b8003300a8
:100e40000801be000200be00b1003700889fbe004e
:100e50008a9fbe008c1f78009c000700a30033000f
:100e600003866c006450e1002e0032006420e10033
:100e7000330032006150e1002f0032006120e100b8
:100e80003100320085855500eb07b00009002000d5
:100e900008042000050037000804440089844c0041
:100ea0000a0031000603430087834b000001530012
:100eb00081815b00f8ff33000203be000800a00040
:100ec0000804440089844c00f6ff3900c639dd006f
:100ed0008301730001003200130020008904d10057
:100ee0000884d3000998a300050032000800a70079
:100ef0000300a0008904d1000884d3008b05e8001a
:100f00008904d1000884d3000001eb000281d200e3
:100f10003300070001f0a1000cf0a70001f0a000d1
:100f20007b0037006420e1007d0032000801be0034
:100f30000200be00f7ff37006120e10078003200b8
:100f40006000b800f3ff37000000200001f8270020
:100f5000f0ff37000001be00470007000470a70043
:100f600003f0a1006509b100160032000d00350044
:100f70006828e10006003500f0ff2f00f1ff270090
:100f80000300e00013003b00010028000000050002
:100f900000004000818048008502e900fcff3a0023
:100fa00008003700f88f420002003c008000eb0090
:100fb000000005008100d1000080d3008502e80018
:100fc000fcff3a000300e00002003b00600010005c
:100fd000e0801800000006006011b800970037009c
:100fe00081002000618055000b003d000b002000b7
:100ff00061fe2f000100e1001d00340082817100bc
:10100000610164008904d1000884d3000000e80075
:10101000faff3a00710020006100640003007000d4
:10102000020060000900320061044400e0844c00ca
:101030000988a500050032008b05e8006808e1007a
:1010400002003a008904d1000884d300f20f200086
:101050000258e10005003d00c75ddd00f907b20060
:101060008980750008007800000006000bf8270052
:101070008b00780000000500c70ade00f107b2000f
:10108000f50fb20008003200e1cf4200020032004a
:101090000170a00024000500810f700001003200e3
:1010a0000408050044000500810f700002003a00aa
:1010b000140005008502e9000000400081c04800de
:1010c000fcff3b000170a000240005000004be00ee
:1010d000e9ff07000003be000405be000200be00d9
:1010e000e5ff0700844f7500000006000200be0007
:1010f0006450e100050036006420e1000200360083
:101100000968a30001003a000800be000160a000c9
:101110004f0678004f05be004f04be0000000600d9
:10112000f0ff2f00f1ff2700f9ff3700889fbe0076
:101130008a9fbe008c1f7800e4ff0700ebff33009e
:1011400003866c006450e100240032006420e1005a
:10115000270032006150e100220032006120e100ee
:10116000210032008b854200eb07b1000134b8004a
:10117000003ab8000804420089844a00013ab800e5
:101180000030b8008880400009014a0004003300a4
:101190000000400081804800020149008b05e90001
:1011a000c909dd0083017000010032001300200036
:1011b000c814de004814dd004709de001200b2004a
:1011c000c808de000884700085ff070001f0a10058
:1011d0000cf0a70001f0a000cdff37006120e10076
:1011e000cfff32000801be000200be00f7ff37004b
:1011f0006150e100fcff3a00c9ff37006022b800ef
:10120000060220000000d0008180d2000482d200bb
:101210008582d2000000a0000202520083825a00a0
:10122000030031000202420083824a000000a10054
:101230000603e900f3ff3a0000000600889fbe00a5
:101240008a9fbe0000827000040271000482710057
:10125000260032000004be000200be006011b8008b
:101260006b092000950220000182cf000a0039009e
:101270000541b1000082cf00070039000541b100ef
:101280000982cf00040039000541b1000882cf0077
:10129000010039000541b100054252001200320040
:1012a0000a003b0082817100610164008100d1006d
:1012b0000080d3008984d3000884d3008b05e80024
:1012c0000442e800f7ff3a00070037000804440032
:1012d00089844c0000004800818048008b05e900ab
:1012e0000442e900f9ff3a003dff07004f05be0048
:0812f0004f04be0000000600df
:020000040000fa
:0812f8001b5b00004800000030
:020000040000fa
:101300000000fa003021ef0040422f00b0098800b1
:10131000d1098000f0fc2f00008060000050a00088
:10132000d00988003a21a9003ac1a9003be1a800f0
:101330009a60a8000080fa00000006000000fa0091
:101340002621ef0000352c0050098800710980002b
:10135000f0fc2f00008060000040a00070098800b1
:101360002e21a9002ec1a9002fe1a8009a00a800f3
:101370000080fa00000006000000fa001821ef00cb
:10138000400d2300e008880001098000f0fc2f00d8
:10139000008060000040a000000988002021a90012
:1013a00020c1a90021e1a8009780a8000080fa00d0
:1013b000000006000000fa000a21ef0000c4290026
:1013c0007008880091088000f0fc2f000080600009
:1013d000900888001221a90012c1a90013e1a800f9
:1013e0009500a9000080fa00000006000000fa0045
:1013f0000621ef00400d230060088800810880006e
:10140000f0fc2f00008060000050a00080088800e1
:101410001021a90010c1a90011e1a80094e0a800c2
:1014200084e0a9000080fa00000006000000fa0035
:101430001828ef001a28ef001c28ef001e28ef00e4
:1014400010002000004188000080fa000000060023
:101450000000fa0000418000e10f50000d003a004a
:10146000d1408000608420003004b000a103070058
:10147000f140800060842000d003b0009d0307008d
:10148000e1408000608420000004b0009903070060
:101490002028ef000080fa00000006000000fa009b
:1014a000c140800040062000808f500016003a00a6
:1014b000201680006400600000f0a7000000ea0031
:1014c0000000e9004f00de00004078000080fb00d3
:1014d000610060004200dd00211680000120a100b3
:1014e00001007000201688001828ef00d04080000e
:1014f0000000e800d0408800d140800060842000d7
:101500003004b0007b030700d0408000ea0f500099
:1015100015003a00201680006100600000f0a7006e
:101520000000ea000000e9004f00de000040780003
:101530000080fb0061006000211680000100a10016
:1015400001007000201688001a28ef00e04080009b
:101550000000e800e0408800e14080006084200056
:101560000004b00063030700e1408000c0032000d6
:10157000808f500008003a001c28ef00f0408000e7
:101580000000e800f0408800f14080006084200006
:10159000d003b000570307000080fa0000000600e7
:1015a0000200fa00000f78000080fa000000060038
:1015b0000e00fa00600798003421ef006e009000e2
:1015c000cf80de0002c429000289b9000201780040
:1015d0006002b900840178000301410003c42900be
:1015e0000300b8000101410082007800008fbe00b6
:1015f000008fbe000000200011002000200798008e
:10160000310798002e019000be0190001e00be0020
:10161000fafe070040079800510798004e0090001e
:10162000de009000e00f5000e08f580007003a0005
:101630001e007800c0098800e1098000f0fc2f003e
:1016400000806000e00988003a0037004e019000f9
:10165000de0190007000200001002000800f51008a
:10166000818f59000d003e001e00be004d09dd00b7
:101670004300de0000007100c308de0000007800b7
:10168000c0098800e1098000f0fc2f0000806000a4
:101690000040a000e0098800260037004e019000bd
:1016a000de019000f003200001002000800f5100b7
:1016b000818f59000d003e001e00be004a09dd006a
:1016c0004600de0000007100c608de000000780061
:1016d000c0098800e1098000f0fc2f000080600054
:1016e0000050a000e0098800120037004e01900071
:1016f000de019000f00f200001002000800f51005b
:10170000818f59000b003e001e00be004809dd001d
:101710004800de0000007100c808de00000078000c
:10172000c0098800e109800000032000010070006a
:10173000e00988003c21a9003cc1a9008a80a900d9
:101740003de1a8000000000050048000700060002f
:101750000000e000fcff32008a80a9003de1a90002
:101760000080fa00000006000e00fa0060079800f2
:101770003421ef006e009000cf80de008202200056
:101780000289b900020178006002b9008401780082
:1017900003014100830220000300b8000101410061
:1017a00082007800008fbe00008fbe000000200085
:1017b0001100200020079800310798002e019000aa
:1017c000be0190001e00be008cfe0700400798007e
:1017d000510798004e009000de009000e00f50008e
:1017e000e08f580007003a001e007800c00988000a
:1017f000e1098000f0fc2f0000806000e009880013
:101800003a0037004e019000de0190007000200089
:1018100001002000800f5100818f59000d003e0013
:101820001e00be004d09dd004300de000000710017
:10183000c308de0000007800c0098800e1098000cc
:10184000f0fc2f00008060000040a000e00988004c
:10185000260037004e019000de019000f0032000ca
:1018600001002000800f5100818f59000d003e00c3
:101870001e00be004a09dd004600de0000007100c7
:10188000c608de0000007800c0098800e109800079
:10189000f0fc2f00008060000050a000e0098800ec
:1018a000120037004e019000de019000f00f200082
:1018b00001002000800f5100818f59000b003e0075
:1018c0001e00be004809dd004800de000000710077
:1018d000c808de0000007800c0098800e109800027
:1018e0000003200001007000e00988003c21a900ed
:1018f0003cc1a9008a80a9003de1a80000000000c9
:1019000050048000700060000000e000fcff320026
:101910008a80a9003de1a9000080fa0000000600cd
:101920000000fa002023ef0001198000f0f12f00e1
:10193000008060000060a000001988002043a8001b
:101940002223ef002423ef002119800000f0210062
:10195000010070002019880030c0b30024e3b700f4
:101960003223ef002623ef002823ef0041198000e7
:1019700000fe2f00008060005000b3004019880076
:101980002e23ef003023ef000080eb005019880079
:101990000080eb00601988002ca3a9002c83a9000b
:1019a0002c03a9002c23a9002c43a90085a0a90081
:1019b00095a0a80021e3a8000080fa00000006001e
:1019c0000000fa0040198000004078007f4060006d
:1019d0000080fb00e20f500024003200e20f5000b4
:1019e00005003c000000e00008003200e10f50005c
:1019f0001200320043003700e40f5000270032008d
:101a0000e50f5000310032003e003700b04080004a
:101a10000118800000014000609a20000000410091
:101a2000010878004119800000fe2f00008060004e
:101a30000000a0004019880032003700b04080004c
:101a40000118800000014000609b20000000410060
:101a5000010878004119800000fe2f00008060001e
:101a60000010a0004019880026003700b040800018
:101a70000118800000014000609c2000000041002f
:101a8000010878004119800000fe2f0000806000ee
:101a90000020a000401988001a003700b0408000e4
:101aa0000118800000014000609920000000410002
:101ab000010878004119800000fe2f0000806000be
:101ac0005000b300401988000e003700b04080007d
:101ad00001188000000140006098200000004100d3
:101ae00001087800b04080000000e800b0408800a5
:101af0004119800000fe2f0000806000401988001e
:101b000000000000b0408000e80f500004003a00e0
:101b10001628ef00100020003040880021e3a900c3
:101b2000004080001140800061004000e0804800db
:101b300000408800114088000080fa000000060084
:101b40000200fa000828ef000a28ef000c28ef0036
:101b50000e28ef001028ef000000eb00000f7800c7
:101b6000290037001e0078008000400060982000a7
:101b700000804000900078004040800000804000dd
:101b8000404088001e0078008000400060992000de
:101b900000804000900078005040800000804000ad
:101ba000504088001e00780080004000609a2000ad
:101bb000008040009000780060408000008040007d
:101bc000604088001e00780080004000609b20007c
:101bd000008040009000780070408000008040004d
:101be000704088001e00780080004000609c20004b
:101bf000008040009000780080408000008040001d
:101c0000804088001e0fe8001e007800e70f50009b
:101c1000d4ff3600404080004300de004040880092
:101c2000504080004300de0050408800604080004b
:101c30004300de0060408800704080004300de000a
:101c400070408800804080004300de0080408800b3
:101c50004140800060842000f004b000c90107000a
:101c600051408000608420001006b000c5010700cc
:101c700061408000608420002008b000c10107009e
:101c800071408000608420004009b000bd01070061
:101c90008140800060842000600ab000b901070024
:101ca00021e3a8000080fa00000006000000fa000e
:101cb00061408000e0192000808f50000400360051
:101cc0006140800050232000808f500019003600b2
:101cd00061408000e0192000808f500009003e0024
:101ce000b14e80000042800065004000808f5000af
:101cf00004003900e04180000000e900e041880074
:101d00000c0037006140800050232000808f50007d
:101d100008003600b14e800010428000650050007f
:101d2000808f500003003e00904080000000e800db
:101d3000904088009140800050092000808f500022
:101d4000040034001228ef00b04e8000650040000f
:101d5000b04e8800e04180000000e00005003c003b
:101d600060092000e0418800b04e8000650050000e
:101d7000b04e880071408000a0182000808f500075
:101d8000040036007140800010222000808f500037
:101d90001900360071408000a0182000808f50008c
:101da00009003e00c14e80000042800065004000f6
:101db000808f500004003900f04180000000e900ed
:101dc000f04188000c003700714080001022200094
:101dd000808f500008003600b14e80001042800015
:101de00065005000808f500003003e00a04080003e
:101df0000000e800a0408800a140800050092000b9
:101e0000808f5000040034001428ef00104f800031
:101e100065004000104f8800f04180000000e000a5
:101e200005003c0060092000f0418800104f800050
:101e300065005000104f8800804080003602070087
:101e4000204f88004040800033020700304f880058
:101e500010002000504188000080fa0000000600b9
:020000040000fa
:101e60004608000040010000020000004453450005
:101e700020323300205052004f59450043544f0048
:101e8000200d0a0049616e0020462e0020792000b6
:101e90004c756900732043002e0d0a003d3d3d0046
:101ea000494e46004f2050004943320034483d001f
:101eb0003d0d0a0043524f004e4f3a00202d2d0099
:101ec0003a2d2d003a2d2d00200d0a00504f5400c0
:101ed000454e3a00202d2d002d2d200020202000e1
:101ee000200d0a0054454d0050453a00202d2d008c
:101ef0002d2d200020202000200d0a003d3d3d001a
:101f00003d4a4f005953540049434b00533d3d0057
:101f10003d0d0a0050783a00202d2d002d2d200077
:101f20002020200020202000200d0a0050793a00b7
:101f3000202d2d002d2d20002020200020202000ed
:101f4000200d0a00504c3a00202d2d002d2d200090
:101f50002020200020202000200d0a003d3d3d00d3
:101f60003d3d5300455256004f533d003d3d3d0021
:101f70003d0d0a0053657200766f2000313a200053
:101f80002d2d2d002d202000200d0a0053657200fc
:101f9000766f2000323a20002d2d2d002d202000bc
:101fa000200d0a0053657200766f2000333a20003e
:101fb0002d2d2d002d202000200d0a0053657200cc
:101fc000766f2000343a20002d2d2d002d2020008a
:101fd000200d0a0053657200766f2000353a20000c
:101fe0002d2d2d002d202000200d0a0044534500ea
:101ff00020323300205052004f59450043544f00c7
:10200000202d2d002d205000554c53004120530011
:1020100033202d002d2d00003808000004000000a2
:10202000020000000100ff00ff0000004408000063
:10203000020000000000000018080000120000006c
:1020400000000000ea09000010000000020000008b
:102050003031320033343500363738003900000073
:102060000000000000000000320800000600000030
:102070000000000086090000500000000000000081
:102080000008000018000000000000003c080000ec
:10209000040000000200000096009600000000000e
:1020a000d609000014000000020000005e03a70033
:1020b00004b80400bd017600025e0300a704b80066
:1020c00004bd01007602000040080000040000008a
:1020d0000200000038012000050000002a0800006e
:0c20e000080000000000000000000000ec
:020000040000fa
:1020ec000200fa00004f7800d6a2a900cbe2a900aa
:1020fc00e116800000f02f0000806000e0168800e0
:10210c009e00fb00e016800001007000e0168800c5
:10211c00d682a800000000000000000000000000b3
:10212c0000000000000000000000000000000000a3
:10213c00000000000000000000000000d682a90092
:10214c00d6a2a8000080fa00000006000200fa00e7
:10215c00004f7800d6a2a900cbe2a800e1168000bf
:10216c0000f02f0000806000e01688009e00fb004d
:10217c00e016800001007000e0168800d682a800ee
:10218c000000000000000000000000000000000043
:10219c000000000000000000000000000000000033
:1021ac000000000000000000d682a900cbe2a900cc
:1021bc00d6a2a8000080fa00000006000000fa0079
:1021cc00f0002000f7fc0700e116800000f02f0063
:1021dc0000806000e0168800d6a2a900cbe2a9001e
:1021ec00d682a900c116800000f02f00008060008c
:1021fc00c0168800d2a2a900c7e2a900d282a90009
:10220c0080c3b300b6ff070050002000e5fc0700b8
:10221c0080c3b300b2ff0700400620004ffd07004b
:10222c0080c3b300aeff0700800220004bfd070007
:10223c0080c3b300aaff07008002200047fd0700ff
:10224c00c0c0b300a6ff07008002200043fd0700ba
:10225c0060c0b300a2ff0700800220003ffd070012
:10226c000080fa00000006000400fa00000f78005d
:10227c0021479800090037001e00780010407800b4
:10228c001e0fe800b1ff07008002200033fd07009d
:10229c002e4090000040e900204798002e4090000e
:1022ac000004e000f4ff3a000080fa000000060091
:1022bc000000fa0000c8b30089ff0700800220006c
:1022cc0026fd07000080fa00000006000000fa005e
:1022dc0000ccb30082ff0700800220001ffd070026
:1022ec000080fa00000006000600fa0010079800b3
:1022fc0021079800ae00900030062000808f50001f
:10230c0001003600ffff3700ae009000d0cc2c004f
:10231c000008b8004308de00004f78001e80fb0068
:10232c00a19e2000614f78001e0090001e4878008e
:10233c001e0090000000e800100798002e0190008d
:10234c00d0cc2c000010b8004308de006a00b900a5
:10235c000000780000005100004f78001e80fb0048
:10236c00a19e2000614f78001e0090001e4878004e
:10237c000080fa00000006000600fa001007980022
:10238c0021079800ae009000f0702200808f500062
:10239c0001003600ffff37002e009000c300de0066
:1023ac00500c22000008b8004408de00004f7800f2
:1023bc001e80fb00a19e2000614f78001e00900043
:1023cc001e4878001e0090000000e80010079800de
:1023dc002e009000c200de00b04721000008b800bb
:1023ec000101d100d0cc2c000010b8004308de0055
:1023fc006a00b9000000780000005100004f78001e
:10240c001e80fb00a19e2000614f78001e009000f2
:10241c001e4878001e0090000000e800100798008d
:10242c00ae009000d0cc2c000008b8004309de00b0
:10243c00d0cc2c000010b8004308de006a00b900b4
:10244c000000780000005100004f78001e80fb0057
:10245c00a19e2000614f78001e0090001e4878005d
:10246c001e0090000000e800100798002e0190005c
:10247c00d0cc2c000010b8004308de006a00b90074
:10248c000000780000005100004f78001e80fb0017
:10249c00a19e2000614f78001e0090001e4878001d
:1024ac000080fa00000006000400fa0010079800f3
:1024bc001e009000104078000080fb004800dd00fa
:1024cc00800078001e0090000000e80010407800aa
:1024dc000080fb00008f70001e0078000080fa0066
:1024ec00000006000200fa00000f78001e007800c1
:1024fc00e10f500025003a00c0418000ee0f500063
:10250c0022003c004428ef001900370022428000d2
:10251c00c0418000234280007200b90000007800a6
:10252c000300400061842000e140780060962000a8
:10253c000170790022428000c04180000000e80058
:10254c00234280007200b9000000780003004000b4
:10255c0061842000e1407800609620000200400079
:10256c0001509800204280000000e80020428800c2
:10257c0020428000ef0f5000e4ff3400c041800087
:10258c000000e800c0418800270037001e007800da
:10259c000000e00024003a00c04180000000e00090
:1025ac00210034004428ef0019003700224280003b
:1025bc00c04180000000e900234280007200b90095
:1025cc00000078000300400061842000e1407800a6
:1025dc00609620000170790022428000c04180008a
:1025ec00234280007200b900000078000300400014
:1025fc0061842000e14078006096200002004000d9
:10260c0001509800204280000000e8002042880021
:10261c0020428000ef0f5000e4ff3400c0418000e6
:10262c000000e900c04188000080fa0000000600ac
:10263c000200fa000000eb00000f78000000eb0035
:10264c00000f780015003700c04180000000e90041
:10265c007200b900000078001e0040006184200068
:10266c00e1407800609620001e0040000148780090
:10267c00c04180007200b900000078001e004000cc
:10268c0061842000e1407800609620001e0040002c
:10269c0070004000014878001e0fe8001e00780012
:1026ac00ef0f5000e8ff34000080fa000000060035
:1026bc000200fa000000eb00000f78000e0037005b
:1026cc001e00780080004000609d200000804000cb
:1026dc0010017800638420001e0078007200b9009d
:1026ec0000007800f00cb0000080410082007800ff
:1026fc0021ff07001e0fe8001e007800e40f5000b9
:10270c00efff34000080fa00000006000200fa001f
:10271c00889fbe00000f78001e0078008000eb0040
:10272c002afa07000004be0011428000004280001b
:10273c00008050008000eb0024fa070002002c00ff
:10274c00f3472400bef907000001be000800be00dc
:10275c0073fa07000004be00004280008000eb000a
:10276c001afa07000001be000800be0057f9070066
:10277c00f5f90700000078004f04be000080fa0055
:10278c00000006000200fa000000eb00000f7800c9
:10279c00300037001e00780080004000609d200053
:1027ac0000804000900078001e007800000140007e
:1027bc00009e20000000410010007800808f500027
:1027cc00230032001e00780080004000609d200035
:1027dc000080400010007800ea0040001e007800e5
:1027ec0000014000009e2000000041001000780015
:1027fc00808f50000c0036001e00780080004000d6
:10280c00609d20000080400010007800ea0040002d
:10281c001e00780000014000609d20000000410077
:10282c00010878000a0037001e0078008000400084
:10283c00009e200000804000900078001e00780070
:10284c0000014000609d200000004100010878005c
:10285c001e0fe8001e007800e40f5000cdff34007e
:10286c000080fa00000006000000fa004a00070091
:10287c00720007007b000700820007004ffe070074
:10288c008bfe07006096200001c1b30076fe0700a6
:10289c008efe0700609620007000400001c1b3005e
:1028ac0071fe070000000000a1168000000420004b
:1028bc00008060000000e000fbff3a000000eb002d
:1028cc0008ff0700d6fa070099fa0700a7fa0700d5
:1028dc0086000700730007003422ef00b2fa0700ed
:1028ec000cfc070067000700bdfa070070ff07002b
:1028fc000100370000000000e5fa0700d1fa0700dc
:10290c00d04180000000e00005003a000000eb0020
:10291c00f4fe07000080eb00d04188000700370070
:10292c00d0418000e10f500004003a00100020005c
:10293c00ecfe07000080eb00d0418800c041800015
:10294c00e10f50000100340039ff070030408000d7
:10295c00e10f500002003a0076fc07000628ef0059
:10296c00504180000000e0000200320050ff0700e0
:10297c002a28ef00704180000000e00001003200c6
:10298c00c7fc0700604180000000e000d9ff320066
:10299c007cff0700d8ff37000000fa00600220001f
:1029ac00303a8800213a8000f0f32f00008060005c
:1029bc00203a8800213a800000fe2f000080600041
:1029cc00203a880040a7a900320020008007200090
:1029dc00a1092000337420008049780081497800d7
:1029ec00824978001200200060042000710520004c
:1029fc00237420008049780081497800824978004e
:102a0c0000000000113a8000000027008080600068
:102a1c0000002300808f5000faff3a0000000000f5
:102a2c00113a800000022000008060000000e000ed
:102a3c00fbff32000080fa00000006000000fa00e4
:102a4c0000f02f00001688002116800000f02f00e7
:102a5c000080600020168800d202a9000080fa00d5
:102a6c00000006000000fa000080eb0050198800fe
:102a7c00d3a2a800d2c2a800c0e2a8000080fa002d
:102a8c00000006000000fa00d202a900d222a90020
:102a9c00d242a900d262a900d302a9000080fa0098
:102aac00000006000000fa0030102000c011880061
:102abc003022ef003062a8003222ef0087c0a9005c
:102acc0087e0a90097c0a80097e0a8009c40a90047
:102adc003222a90031e2a8003342a800b001200044
:102aec001efb07000080fa00000006000000fa0040
:102afc0061e0a8006200a80062e0a8006260a80083
:102b0c0062a0a8009660a8008660a9000080fa0068
:042b1c0000000600af
:020000040000fa
:0200000401f009
:04000c00fbff0000f6
:020000040000fa
:0200000401f009
:040010007dff000070
:020000040000fa
:0200000401f009
:040014007fff00006a
:00000001FF
