:020000040000fa
:080000000002040000000000f2
:020000040000fa
:040008000a030000e7
:020000040000fa
:04000c000a030000e3
:020000040000fa
:040010000a030000df
:020000040000fa
:040014000a030000db
:020000040000fa
:040018000a030000d7
:020000040000fa
:04001c000a030000d3
:020000040000fa
:040020000a030000cf
:020000040000fa
:040024000a030000cb
:020000040000fa
:040028000a030000c7
:020000040000fa
:04002c000a030000c3
:020000040000fa
:040030000a030000bf
:020000040000fa
:040034000a030000bb
:020000040000fa
:040038000a030000b7
:020000040000fa
:04003c000a030000b3
:020000040000fa
:040040000a030000af
:020000040000fa
:040044000a030000ab
:020000040000fa
:040048000a030000a7
:020000040000fa
:04004c000a030000a3
:020000040000fa
:040050000a0300009f
:020000040000fa
:040054000a0300009b
:020000040000fa
:040058000a03000097
:020000040000fa
:04005c000a03000093
:020000040000fa
:040060000a0300008f
:020000040000fa
:040064000a0300008b
:020000040000fa
:040068000a03000087
:020000040000fa
:04006c000a03000083
:020000040000fa
:040070000a0300007f
:020000040000fa
:04007400c8020000be
:020000040000fa
:040078000a03000077
:020000040000fa
:04007c000a03000073
:020000040000fa
:040080000a0300006f
:020000040000fa
:040084000a0300006b
:020000040000fa
:040088000a03000067
:020000040000fa
:04008c000a03000063
:020000040000fa
:040090000a0300005f
:020000040000fa
:040094000a0300005b
:020000040000fa
:040098000a03000057
:020000040000fa
:04009c000a03000053
:020000040000fa
:0400a0000a0300004f
:020000040000fa
:0400a4000a0300004b
:020000040000fa
:0400a8000a03000047
:020000040000fa
:0400ac000a03000043
:020000040000fa
:0400b0000a0300003f
:020000040000fa
:0400b4000a0300003b
:020000040000fa
:0400b8000a03000037
:020000040000fa
:0400bc000a03000033
:020000040000fa
:0400c0000a0300002f
:020000040000fa
:0400c4000a0300002b
:020000040000fa
:0400c8000a03000027
:020000040000fa
:0400cc000a03000023
:020000040000fa
:0400d0000a0300001f
:020000040000fa
:0400d4000a0300001b
:020000040000fa
:0400d8000a03000017
:020000040000fa
:0400dc000a03000013
:020000040000fa
:0400e0000a0300000f
:020000040000fa
:0400e4000a0300000b
:020000040000fa
:0400e800f80200001a
:020000040000fa
:0400ec000a03000003
:020000040000fa
:0400f0000a030000ff
:020000040000fa
:0400f4000a030000fb
:020000040000fa
:0400f8000a030000f7
:020000040000fa
:0400fc000a030000f3
:020000040000fa
:040100000a030000ee
:020000040000fa
:040104000a030000ea
:020000040000fa
:040108000a030000e6
:020000040000fa
:04010c000a030000e2
:020000040000fa
:040110000a030000de
:020000040000fa
:040114000a030000da
:020000040000fa
:040118000a030000d6
:020000040000fa
:04011c000a030000d2
:020000040000fa
:040120000a030000ce
:020000040000fa
:040124000a030000ca
:020000040000fa
:040128000a030000c6
:020000040000fa
:04012c000a030000c2
:020000040000fa
:040130000a030000be
:020000040000fa
:040134000a030000ba
:020000040000fa
:040138000a030000b6
:020000040000fa
:04013c000a030000b2
:020000040000fa
:040140000a030000ae
:020000040000fa
:040144000a030000aa
:020000040000fa
:040208000a030000e5
:020000040000fa
:04020c000a030000e1
:020000040000fa
:040210000a030000dd
:020000040000fa
:040214000a030000d9
:020000040000fa
:040218000a030000d5
:020000040000fa
:04021c000a030000d1
:020000040000fa
:040220000a030000cd
:020000040000fa
:040224000a030000c9
:020000040000fa
:040228000a030000c5
:020000040000fa
:04022c000a030000c1
:020000040000fa
:040230000a030000bd
:020000040000fa
:040234000a030000b9
:020000040000fa
:040238000a030000b5
:020000040000fa
:04023c000a030000b1
:020000040000fa
:040240000a030000ad
:020000040000fa
:040244000a030000a9
:020000040000fa
:040248000a030000a5
:020000040000fa
:04024c000a030000a1
:020000040000fa
:040250000a0300009d
:020000040000fa
:040254000a03000099
:020000040000fa
:040258000a03000095
:020000040000fa
:04025c000a03000091
:020000040000fa
:040260000a0300008d
:020000040000fa
:040264000a03000089
:020000040000fa
:040268000a03000085
:020000040000fa
:04026c000a03000081
:020000040000fa
:040270000a0300007d
:020000040000fa
:040274000a03000079
:020000040000fa
:040278000a03000075
:020000040000fa
:04027c000a03000071
:020000040000fa
:040280000a0300006d
:020000040000fa
:040284000a03000069
:020000040000fa
:040288000a03000065
:020000040000fa
:04028c000a03000061
:020000040000fa
:040290000a0300005d
:020000040000fa
:040294000a03000059
:020000040000fa
:040298000a03000055
:020000040000fa
:04029c000a03000051
:020000040000fa
:0402a0000a0300004d
:020000040000fa
:0402a4000a03000049
:020000040000fa
:0402a8000a03000045
:020000040000fa
:0402ac000a03000041
:020000040000fa
:0402b0000a0300003d
:020000040000fa
:0402b4000a03000039
:020000040000fa
:0402b8000a03000035
:020000040000fa
:0402bc000a03000031
:020000040000fa
:0402c0000a0300002d
:020000040000fa
:0402c4000a03000029
:020000040000fa
:0402c8000a03000025
:020000040000fa
:0402cc000a03000021
:020000040000fa
:0402d0000a0300001d
:020000040000fa
:0402d4000a03000019
:020000040000fa
:0402d8000a03000015
:020000040000fa
:0402dc000a03000011
:020000040000fa
:0402e0000a0300000d
:020000040000fa
:0402e4000a03000009
:020000040000fa
:0402e8000a03000005
:020000040000fa
:0402ec000a03000001
:020000040000fa
:0402f0000a030000fd
:020000040000fa
:0402f4000a030000f9
:020000040000fa
:0402f8000a030000f5
:020000040000fa
:0402fc000a030000f1
:020000040000fa
:040300000a030000ec
:020000040000fa
:040304000a030000e8
:020000040000fa
:040308000a030000e4
:020000040000fa
:04030c000a030000e0
:020000040000fa
:040310000a030000dc
:020000040000fa
:040314000a030000d8
:020000040000fa
:040318000a030000d4
:020000040000fa
:04031c000a030000d0
:020000040000fa
:040320000a030000cc
:020000040000fa
:040324000a030000c8
:020000040000fa
:040328000a030000c4
:020000040000fa
:04032c000a030000c0
:020000040000fa
:040330000a030000bc
:020000040000fa
:040334000a030000b8
:020000040000fa
:040338000a030000b4
:020000040000fa
:04033c000a030000b0
:020000040000fa
:040340000a030000ac
:020000040000fa
:040344000a030000a8
:020000040000fa
:100400008f8020000e7f24000e0188000000000075
:10041000000020000000e000020032000001200087
:1004200020028800140007007c0007000000e000a4
:1004300003003a00006520000100200002003700a0
:100440000000200001002000810f70000100320038
:1004500014000700000020000000e000020032004d
:100460000000020000000000f4050200000000008f
:100470000040da000000fe004440a9000000200017
:100480000000e0000300320000002000a00188000e
:100490004440a800000006008a1f78008b1f7800e7
:1004a0000000060091018800800478000000eb0045
:1004b0001a003700e284440032a0b4009905ba0063
:1004c000e284440032a0b4009906ba00e2844400f9
:1004d00032a0b4000006eb00476fde00fd07b2005b
:1004e000636ce10003003a00ebff07000000eb0043
:1004f0000a003700606ce10004003a00005deb0088
:100500008b05e900fdff3e00040037006168e10053
:10051000010032000086eb000b00070019c7ba008b
:100520001905ba000e04e00003003a000a00e000da
:10053000e0ff3a0000000600fe07b2009e018800be
:100540008a047800f5ff3700395dba008b05e900b1
:100550000c003200295dba008b05e900080032006a
:100560000c00e00003003a00e284440032a0b40032
:10057000f5ff370019ddba008b05e900faff3a00f4
:100580008904e800e184440032a0b40000000600c1
:10059000809fbe000000fa00a1168000000022002b
:1005a000008060000000e0000d003a00201680008e
:1005b0006100600000f0a7000000ea000000e90010
:1005c0004f00de00004078000080fb00610060000a
:1005d000211680000100a100010070002016880093
:1005e0008660a9000080fa004f00be0000400600af
:1005f000801f78000000fa00004080006a00400080
:10060000004088008a00a9000080fa004f007800ae
:10061000004006000040da000000fe000000050077
:1006200014002000020037006011b8001b003700e2
:10063000889fbe008a9fbe00841f78006c00070060
:100640004f00780011003300f0ff2f00838f6c0003
:1006500006003b00040565000a00a70008003700fb
:1006600009f0a6001000200008003700820f540097
:10067000838f5c00030039001000200001003e0061
:100680000000200009f0a7000000ea004f05be00ae
:100690004f04be000000e00000000600889fbe007e
:1006a0008a9fbe0000827000040271000482710003
:1006b000260032000004be000200be006011b80037
:1006c0006b092000950220000182cf000a0039004a
:1006d0000541b1000082cf00070039000541b1009b
:1006e0000982cf00040039000541b1000882cf0023
:1006f000010039000541b1000542520012003200ec
:100700000a003b0082817100610164008100d10018
:100710000080d3008984d3000884d3008b05e800cf
:100720000442e800f7ff3a000700370008044400dd
:1007300089844c0000004800818048008b05e90056
:100740000442e900f9ff3a00030007004f05be002c
:100750004f04be00000006008100200061805500ab
:100760000b003d000b00200061fe2f000100e100a6
:100770001d00340082817100610164008904d10090
:100780000884d3000000e800faff3a00710020005e
:100790006100640003007000020060000900320084
:1007a00061044400e0844c000988a5000500320083
:1007b0008b05e8006808e10002003a008904d100d6
:1007c0000884d300f20f20000258e10005003d002c
:1007d000c75ddd00f907b200898075000800780068
:1007e000000006000bf827008b00780000000500d1
:1007f0000004be00060007000003be000405be00a2
:100800000200be0002000700844f750000000600d1
:10081000c70ade00f107b200f50fb200080032008f
:10082000e1cf4200020032000170a0002400050068
:10083000810f70000100320004080500440005002b
:10084000810f700002003a00140005008502e900e3
:100850000000400081c04800fcff3b000170a00088
:04086000240005006b
:020000040000fa
:100864000000fa002621ef0000352c005009880012
:1008740071098000f0fc2f00008060000040a0009f
:10088400700988002e21a9002ec1a9002fe1a8001b
:100894009a00a8000080fa00000006000000fa0098
:1008a4000028ef000228ef000428ef000628ef00dc
:1008b4000080fa00000006000000fa0001408000f9
:1008c40040062000808f500012003a00201680005d
:1008d4006400600000f0a7000000ea000000e900e6
:1008e4004f00de00004078000080fb0061006000e3
:1008f4004200dd00211680000120a10001007000eb
:10090400201688000028ef00104080000000e80056
:100914001040880010408000ea0f500011003a0097
:10092400201680006100600000f0a7000000ea00cb
:100934000000e9004f00de00004078000080fb006a
:1009440061006000211680000100a1000100700018
:10095400201688000228ef00204080000000e800f4
:100964002040880021408000c0032000808f500078
:1009740004003a000428ef00304080000000e80042
:10098400304088000080fa00000006000a00fa00e7
:10099400881f7800400798003421ef00ce009000b3
:1009a40000c429000088b90000007800000f780016
:1009b4000000eb00100798009e0078001e009000d5
:1009c40000017800110009008280d8008000eb004b
:1009d40014ff0700200798003107980018c0b300df
:1009e4000200200003f823002e009000be009000b7
:1009f4000aff07000000e000010035000044eb009e
:100a04000804e000070032009e007800c109880055
:100a1400e1098000f0fc2f0000806000e0098800fc
:100a24003a00370018c0b30002002000031024006d
:100a34002e009000be009000f8fe07000000e000c9
:100a4400010035000044eb000804e0000900320016
:100a54001e0078004300de00c0098800e109800020
:100a6400f0fc2f00008060000040a000e009880036
:100a74002600370018c0b300020020000328240019
:100a84002e009000be009000e4fe07000000e0008d
:100a9400010035000044eb000804e00009003200c6
:100aa4001e0078004600de00c0098800e1098000cd
:100ab400f0fc2f00008060000050a000e0098800d6
:100ac4001200370018c0b3000200200003382400cd
:100ad4002e009000be009000d0fe07000000e00051
:100ae400010035000044eb000804e0000700320078
:100af4001e0078004800de00c0098800e10980007b
:100b04000003200001007000e00988003c21a900d6
:100b14003cc1a9003de1a8008a80a90000000000b2
:100b240050048000700060000000e000fcff320010
:100b34008a80a9004f0478000080fa0000000600b3
:100b44000000fa0060022000303a8800213a800058
:100b5400f0f32f0000806000203a8800213a8000e2
:100b640000fe2f0000806000203a880040a7a90002
:100b74003200200080072000a109200033742000e7
:100b84008049780081497800824978001200200069
:100b9400600420007105200023742000804978003f
:100ba400814978008249780000000000113a8000f1
:100bb400000027008080600000002300808f500028
:100bc400faff3a0000000000113a80000002200001
:100bd400008060000000e000fbff32000080fa00ab
:100be400000006000000fa00d5ff0700130007000c
:100bf4001d0007004006200064ff07002116800046
:100c0400000220000080600000f0a7000000ea005d
:100c14000000e9004f00de00004078000080fb0087
:100c2400610060004500dd00211680000150a10034
:100c34000100700020168800eeff37000000fa0063
:100c440000f02f00001688000000000000000000e3
:100c54002116800000f02f0000806000201688001c
:100c64000080fa00000006000000fa000080eb009b
:100c740050198800d3a2a800d2e2a8000080fa008c
:100c8400000006000000fa006260a8009660a80058
:0c0c94008660a9000080fa000000060045
:020000040000fa
:100ca0000008000008000000000000000000000034
:020000040000fa
:0200000401f009
:04000c00fbff0000f6
:020000040000fa
:0200000401f009
:040010007dff000070
:020000040000fa
:0200000401f009
:040014007fff00006a
:00000001FF
