:020000040000fa
:080000000002040000000000f2
:020000040000fa
:040008006e03000083
:020000040000fa
:04000c006e0300007f
:020000040000fa
:040010006e0300007b
:020000040000fa
:040014006e03000077
:020000040000fa
:040018006e03000073
:020000040000fa
:04001c006e0300006f
:020000040000fa
:040020006e0300006b
:020000040000fa
:040024006e03000067
:020000040000fa
:040028006e03000063
:020000040000fa
:04002c006e0300005f
:020000040000fa
:040030006e0300005b
:020000040000fa
:040034006e03000057
:020000040000fa
:040038006e03000053
:020000040000fa
:04003c006e0300004f
:020000040000fa
:040040006e0300004b
:020000040000fa
:040044006e03000047
:020000040000fa
:040048006e03000043
:020000040000fa
:04004c006e0300003f
:020000040000fa
:040050006e0300003b
:020000040000fa
:040054006e03000037
:020000040000fa
:040058006e03000033
:020000040000fa
:04005c006e0300002f
:020000040000fa
:040060006e0300002b
:020000040000fa
:040064006e03000027
:020000040000fa
:040068006e03000023
:020000040000fa
:04006c006e0300001f
:020000040000fa
:040070006e0300001b
:020000040000fa
:04007400c8020000be
:020000040000fa
:040078006e03000013
:020000040000fa
:04007c006e0300000f
:020000040000fa
:040080006e0300000b
:020000040000fa
:040084006e03000007
:020000040000fa
:040088006e03000003
:020000040000fa
:04008c006e030000ff
:020000040000fa
:040090006e030000fb
:020000040000fa
:040094006e030000f7
:020000040000fa
:040098006e030000f3
:020000040000fa
:04009c006e030000ef
:020000040000fa
:0400a0006e030000eb
:020000040000fa
:0400a4006e030000e7
:020000040000fa
:0400a8006e030000e3
:020000040000fa
:0400ac006e030000df
:020000040000fa
:0400b0006e030000db
:020000040000fa
:0400b4006e030000d7
:020000040000fa
:0400b8006e030000d3
:020000040000fa
:0400bc006e030000cf
:020000040000fa
:0400c0006e030000cb
:020000040000fa
:0400c4006e030000c7
:020000040000fa
:0400c8006e030000c3
:020000040000fa
:0400cc006e030000bf
:020000040000fa
:0400d0006e030000bb
:020000040000fa
:0400d4006e030000b7
:020000040000fa
:0400d8006e030000b3
:020000040000fa
:0400dc006e030000af
:020000040000fa
:0400e0006e030000ab
:020000040000fa
:0400e4006e030000a7
:020000040000fa
:0400e800f80200001a
:020000040000fa
:0400ec006e0300009f
:020000040000fa
:0400f0006e0300009b
:020000040000fa
:0400f4006e03000097
:020000040000fa
:0400f8006e03000093
:020000040000fa
:0400fc006e0300008f
:020000040000fa
:040100006e0300008a
:020000040000fa
:040104006e03000086
:020000040000fa
:040108006e03000082
:020000040000fa
:04010c006e0300007e
:020000040000fa
:040110006e0300007a
:020000040000fa
:040114006e03000076
:020000040000fa
:040118006e03000072
:020000040000fa
:04011c006e0300006e
:020000040000fa
:040120006e0300006a
:020000040000fa
:040124006e03000066
:020000040000fa
:040128006e03000062
:020000040000fa
:04012c006e0300005e
:020000040000fa
:040130006e0300005a
:020000040000fa
:040134006e03000056
:020000040000fa
:040138006e03000052
:020000040000fa
:04013c006e0300004e
:020000040000fa
:040140006e0300004a
:020000040000fa
:040144006e03000046
:020000040000fa
:040208006e03000081
:020000040000fa
:04020c006e0300007d
:020000040000fa
:040210006e03000079
:020000040000fa
:040214006e03000075
:020000040000fa
:040218006e03000071
:020000040000fa
:04021c006e0300006d
:020000040000fa
:040220006e03000069
:020000040000fa
:040224006e03000065
:020000040000fa
:040228006e03000061
:020000040000fa
:04022c006e0300005d
:020000040000fa
:040230006e03000059
:020000040000fa
:040234006e03000055
:020000040000fa
:040238006e03000051
:020000040000fa
:04023c006e0300004d
:020000040000fa
:040240006e03000049
:020000040000fa
:040244006e03000045
:020000040000fa
:040248006e03000041
:020000040000fa
:04024c006e0300003d
:020000040000fa
:040250006e03000039
:020000040000fa
:040254006e03000035
:020000040000fa
:040258006e03000031
:020000040000fa
:04025c006e0300002d
:020000040000fa
:040260006e03000029
:020000040000fa
:040264006e03000025
:020000040000fa
:040268006e03000021
:020000040000fa
:04026c006e0300001d
:020000040000fa
:040270006e03000019
:020000040000fa
:040274006e03000015
:020000040000fa
:040278006e03000011
:020000040000fa
:04027c006e0300000d
:020000040000fa
:040280006e03000009
:020000040000fa
:040284006e03000005
:020000040000fa
:040288006e03000001
:020000040000fa
:04028c006e030000fd
:020000040000fa
:040290006e030000f9
:020000040000fa
:040294006e030000f5
:020000040000fa
:040298006e030000f1
:020000040000fa
:04029c006e030000ed
:020000040000fa
:0402a0006e030000e9
:020000040000fa
:0402a4006e030000e5
:020000040000fa
:0402a8006e030000e1
:020000040000fa
:0402ac006e030000dd
:020000040000fa
:0402b0006e030000d9
:020000040000fa
:0402b4006e030000d5
:020000040000fa
:0402b8006e030000d1
:020000040000fa
:0402bc006e030000cd
:020000040000fa
:0402c0006e030000c9
:020000040000fa
:0402c4006e030000c5
:020000040000fa
:0402c8006e030000c1
:020000040000fa
:0402cc006e030000bd
:020000040000fa
:0402d0006e030000b9
:020000040000fa
:0402d4006e030000b5
:020000040000fa
:0402d8006e030000b1
:020000040000fa
:0402dc006e030000ad
:020000040000fa
:0402e0006e030000a9
:020000040000fa
:0402e4006e030000a5
:020000040000fa
:0402e8006e030000a1
:020000040000fa
:0402ec006e0300009d
:020000040000fa
:0402f0006e03000099
:020000040000fa
:0402f4006e03000095
:020000040000fa
:0402f8006e03000091
:020000040000fa
:0402fc006e0300008d
:020000040000fa
:040300006e03000088
:020000040000fa
:040304006e03000084
:020000040000fa
:040308006e03000080
:020000040000fa
:04030c006e0300007c
:020000040000fa
:040310006e03000078
:020000040000fa
:040314006e03000074
:020000040000fa
:040318006e03000070
:020000040000fa
:04031c006e0300006c
:020000040000fa
:040320006e03000068
:020000040000fa
:040324006e03000064
:020000040000fa
:040328006e03000060
:020000040000fa
:04032c006e0300005c
:020000040000fa
:040330006e03000058
:020000040000fa
:040334006e03000054
:020000040000fa
:040338006e03000050
:020000040000fa
:04033c006e0300004c
:020000040000fa
:040340006e03000048
:020000040000fa
:040344006e03000044
:020000040000fa
:100400008f8020000e7f24000e0188000000000075
:10041000000020000000e000020032000001200087
:100420002002880014000700ae0007000000e00072
:1004300003003a0040442000010020000200370081
:100440000000200001002000810f70000100320038
:1004500014000700000020000000e000020032004d
:10046000000002000000000016040200000000006e
:100470000040da000000fe004440a9000000200017
:100480000000e0000300320000002000a00188000e
:100490004440a800000006008a1f78008b1f7800e7
:1004a0000000060091018800800478000000eb0045
:1004b0001a003700e284440032a0b4009905ba0063
:1004c000e284440032a0b4009906ba00e2844400f9
:1004d00032a0b4000006eb00476fde00fd07b2005b
:1004e000636ce10003003a00ebff07000000eb0043
:1004f0000a003700606ce10004003a00005deb0088
:100500008b05e900fdff3e00040037006168e10053
:10051000010032000086eb000b00070019c7ba008b
:100520001905ba000e04e00003003a000a00e000da
:10053000e0ff3a0000000600fe07b2009e018800be
:100540008a047800f5ff3700395dba008b05e900b1
:100550000c003200295dba008b05e900080032006a
:100560000c00e00003003a00e284440032a0b40032
:10057000f5ff370019ddba008b05e900faff3a00f4
:100580008904e800e184440032a0b40000000600c1
:10059000809fbe000000fa00a1168000000022002b
:1005a000008060000000e0000d003a00201680008e
:1005b0006100600000f0a7000000ea000000e90010
:1005c0004f00de00004078000080fb00610060000a
:1005d000211680000100a100010070002016880093
:1005e0008660a9000080fa004f00be0000400600af
:1005f000809fbe000000fa00004080006a004000ba
:10060000004088000140800040062000808f50009c
:1006100012003a00201680006400600000f0a7007d
:100620000000ea000000e9004f00de000040780012
:100630000080fb00610060004200dd0021168000a8
:100640000120a10001007000201688000028ef00a2
:10065000104080000000e80010408800104080003a
:10066000ea0f500011003a0020168000610060007f
:1006700000f0a7000000ea000000e9004f00de00e3
:10068000004078000080fb006100600021168000bf
:100690000100a10001007000201688000228ef0070
:1006a000204080000000e8002040880021408000b9
:1006b000c0032000808f500004003a000428ef009f
:1006c000304080000000e800304088008a00a90027
:1006d0000080fa004f00be00004006000040da0033
:0806e0000000fe00000005000f
:020000040000fa
:1006e8000000fa0060022000303a8800213a8000b9
:1006f800f0f32f0000806000203a8800213a800043
:1007080000fe2f0000806000203a880040a7a90062
:100718003200200080072000a10920003374200047
:1007280080497800814978008249780012002000c9
:10073800600420007105200023742000804978009f
:10074800814978008249780000000000113a800051
:10075800000027008080600000002300808f500088
:10076800faff3a0000000000113a80000002200061
:10077800008060000000e000fbff32000080fa000b
:10078800000006000000fa002621ef0000352c00ca
:100798005009880071098000f0fc2f00008060007b
:1007a8000040a000700988002e21a9002ec1a900d0
:1007b8002fe1a8009a00a8000080fa0000000600b7
:1007c8000000fa000028ef000228ef000428ef00dc
:1007d8000628ef000080fa00000006000000fa007a
:1007e80000f02f0000168800000000000000000044
:1007f8002116800000f02f0000806000201688007d
:100808000080fa00000006000000fa000080eb00fb
:1008180050198800d3a2a800d2e2a8000080fa00ec
:10082800000006000200fa00adff0700ebff07001a
:10083800f5ff070000000000a11680000008200056
:10084800008060000000e000fbff3a00dcff0700ca
:10085800ccff0700040007000000eb00000f780041
:10086800c4a2a900ffff37000000fa006260a800d8
:100878009660a8008660a9000080fa0000000600c3
:020000040000fa
:100888000008000008000000000000000000000050
:020000040000fa
:0200000401f009
:04000c00fbff0000f6
:020000040000fa
:0200000401f009
:040010007dff000070
:020000040000fa
:0200000401f009
:040014007fff00006a
:00000001FF
